:020000040800F2
:1000000000000220512000082506000827060008ED
:10001000290600082B0600082D0600080000000035
:100020000000000000000000000000002F06000893
:1000300031060008000000003306000835060008FD
:10004000A1200008A1200008A1200008A12000088C
:10005000A1200008A1200008A1200008A12000087C
:10006000A1200008A1200008A1200008A12000086C
:10007000A1200008A1200008A1200008A12000085C
:10008000A1200008A1200008A1200008A12000084C
:10009000A1200008A1200008A1200008A12000083C
:1000A000A1200008A1200008A1200008A12000082C
:1000B000A1200008A1200008A1200008A12000081C
:1000C000A1200008A1200008A1200008A12000080C
:1000D000A1200008A1200008A1200008A1200008FC
:1000E0003D060008A1200008A1200008A12000086A
:1000F000A1200008A1200008A1200008A1200008DC
:10010000A1200008A1200008A1200008A1200008CB
:10011000A1200008A1200008A1200008A1200008BB
:10012000A1200008A1200008A1200008A1200008AB
:10013000A1200008A1200008A1200008A12000089B
:10014000A1200008A1200008A1200008A12000088B
:10015000A1200008A1200008A1200008A12000087B
:10016000A1200008A1200008A1200008A12000086B
:10017000A1200008A1200008A1200008A12000085B
:10018000A1200008A1200008A1200008A12000084B
:10019000A120000800000000A1200008A120000804
:1001A000A1200008A1200008A1200008A12000082B
:1001B000A1200008A1200008A1200008A12000081B
:1001C000A1200008A1200008A1200008A12000080B
:0801D000A1200008A120000895
:1001E00001F0FF01102A2BDB10F0070F08D010F8E8
:1001F000013B013A8B422DD010F0070F42B3F6D1EC
:10020000F0B441EA012141EA014122F007047FF004
:1002100000070023F0E80256083C85EA010586EA5B
:10022000010685FA47F5A3FA87F586FA47F6A5FA97
:1002300087F68EB9EED1F0BC01F0FF0102F00702A3
:1002400032B110F8013B013A83EA010313B1F8D14E
:100250000020704701387047002D06BF354603382F
:10026000073815F0010F07D1013015F4807F02BF68
:10027000013015F4C03F0130F0BC0138704700BFB9
:1002800053B94AB9002908BF00281CBF4FF0FF31FD
:100290004FF0FF3000F00CB8ADF1080C6DE904CE62
:1002A00002F0A2FBDDF804E0DDE9022304B07047B0
:1002B000704700BF10B5054C237833B9044B13B118
:1002C0000448AFF300800123237010BD5C000020C0
:1002D00000000000B02C000808B5034B1BB1034917
:1002E0000348AFF3008008BD00000000600000205C
:1002F000B02C000830B58BB0002405940694079408
:1003000008940994294BDA6C42F00402DA64DA6C3E
:1003100002F004020192019ADA6C42F02002DA64DF
:10032000DA6C02F020020292029ADA6C42F00102C8
:10033000DA64DA6C02F001020392039ADA6C42F09A
:100340000202DA64DB6C03F002030493049B22468E
:1003500020214FF0904000F021FB4FF40053059313
:100360004FF488130693079405A9114800F02CFA5E
:100370000125059503230693079405A94FF09040A6
:1003800000F022FA2023059306950794089405A906
:100390004FF0904000F018FA22462146282000F045
:1003A000B9F9282000F0EEF90BB030BD0010024082
:1003B0000008004872B6FEE708B51548154B036003
:1003C0004FF4E133436000238360C36003610C2278
:1003D0004261836103624362836201F075FD70B91B
:1003E00000210B4801F0E9FD58B90021084801F04F
:1003F00009FE40B9064801F0C1FD30B908BDFFF75C
:10040000D9FFFFF7D7FFFFF7D5FFFFF7D3FF00BFF7
:10041000780000200080004008B50A480A4B0360BD
:1004200043F2E0334360002383604FF6FF72C26003
:1004300003614361836101F0D9F900B908BDFFF799
:10044000B9FF00BF080100200044014000B595B08D
:100450003822002106A801F045FE002301930293F3
:100460000393049305934FF4007000F0B5FA022350
:1004700006934FF48072099240220A920D930E93D4
:1004800004220F925522109211931293139306A8EF
:1004900000F05CFB88B90F23019303230293A02390
:1004A0000393002104914FF4E063059301A800F049
:1004B00005FE20B915B05DF804FBFFF77BFFFFF7E1
:1004C00079FF000010B58EB000F0F0F8FFF7BEFF26
:1004D000FFF710FFFFF770FFFFF79EFF134B01AC14
:1004E0000FCB07C4237064230C2201A9104801F02C
:1004F00042FC104801F0C4F80E4B1B685C6AA2B2C3
:10050000C82AF9D100225A6220214FF0904000F011
:100510004AFAA2B2084901A801F0C4FD642382B2DC
:1005200001A9034801F027FCE6E700BFC82C00083A
:100530007800002008010020D82C000800B583B006
:100540000B4B1A6E42F001021A661A6E02F001029B
:100550000092009A9A6D42F080529A659B6D03F06A
:1005600080530193019B00F0BDFA03B05DF804FBDA
:100570000010024010B59CB004460021179118915C
:1005800019911A911B91542202A801F0ABFD226827
:10059000174B9A4201D01CB010BD2023029302A831
:1005A00000F0B2FE00BB134BDA6D42F00102DA65D7
:1005B000DA6D02F001020092009ADA6C42F0010258
:1005C000DA64DB6C03F001030193019B0C231793A6
:1005D00002221892002219921A921B9317A94FF027
:1005E000904000F0F1F8D6E7FFF7E4FEDBE700BF4C
:1005F00000800040001002400268094B9A4200D07F
:10060000704782B003F54C431A6E42F400321A660A
:100610001B6E03F400330193019B02B0704700BFCF
:1006200000440140FEE7FEE7FEE7FEE7FEE7704715
:100630007047704708B500F049F808BD08B54FF499
:10064000005000F0BBF908BD034AD2F8883043F4EB
:100650007003C2F88830704700ED00E0104B1B6853
:100660000BB90120704710B504464FF47A70B0FB07
:10067000F3F30C4A1068B0FBF3F000F091F868B99E
:100680000F2C01D901200AE0002221464FF0FF3053
:1006900000F040F8044B1C60002000E0012010BD79
:1006A00004000020000000200800002010B50320F6
:1006B00000F01EF80020FFF7D1FF10B10124204602
:1006C00010BD0446FFF73AFFF9E70000034A13683C
:1006D000034909680B441360704700BF54010020B0
:1006E00004000020014B1868704700BF540100202F
:1006F000074AD36823F4E0631B041B0C000200F4D8
:10070000E060034343F0BF6343F40033D3607047BA
:1007100000ED00E000B5194BDB68C3F30223C3F121
:10072000070CBCF1040F28BF4FF0040C03F1040EBA
:10073000BEF1060F18D9033B4FF0FF3E0EFA0CFC3A
:1007400021EA0C0199400EFA03FE22EA0E020A4346
:1007500000280BDB1201D2B200F1604000F56140CD
:1007600080F800235DF804FB0023E5E700F00F00AC
:100770001201D2B2024B1A54F4E700BF00ED00E0C0
:1007800014ED00E0002807DB00F01F024009012300
:100790009340024A42F82030704700BF00E100E079
:1007A0000138B0F1807F0BD24FF0E0235861054A49
:1007B000F02182F823100020986107221A61704707
:1007C0000120704700ED00E0F0B583B0002362E047
:1007D00085685E000324B44025EA0405CC68B44073
:1007E0002C438460456825EA0C054C68C4F300146A
:1007F0009C402C4344605FE0DD08083550F82540FC
:1008000003F0070C4FEA8C0C4FF00F0E0EFA0CFEA3
:1008100024EA0E0E0C6904FA0CF444EA0E0440F8C3
:10082000254060E0052400E0002404FA0EF42C4387
:100830000CF1020C554D45F82C40554CA568D4439D
:1008400025EA02064F6817F4801F01D042EA050628
:100850004F4DAE60ED6804EA05064F6817F4001FBF
:1008600001D042EA05064A4DEE606D6804EA0506CD
:100870004F6817F4003F01D042EA0506444D6E6010
:100880002D682C404E6816F4803F01D042EA0504E2
:100890003F4A146001330A6832FA03F474D04FF00F
:1008A000010C0CFA03FC1CEA0202F3D04C6804F0C1
:1008B0000304013C012C8BD94C6804F00304032C85
:1008C0000CD0C4685D004FF0030C0CFA05FC24EA60
:1008D0000C0C8C68AC4044EA0C04C4604C6804F016
:1008E0000304022C88D004684FEA430E4FF0030C37
:1008F0000CFA0EFC24EA0C0C4C6804F0030404FA15
:100900000EF444EA0C0404604C6814F4403FC1D077
:10091000204C256E45F001052566246E04F0010487
:100920000194019C4FEA930C0CF10205174C54F80A
:10093000255003F0030E4FEA8E0E0F2404FA0EF436
:1009400025EA0405B0F1904F3FF46EAF124CA0427F
:1009500012D004F58064A04210D004F58064A04257
:100960000ED004F58064A0420CD004F58064A0424F
:100970003FF458AF062458E7012456E7022454E711
:10098000032452E7042450E703B0F0BD0000014007
:100990000004014000100240000400480AB18161D7
:1009A000704781627047436901EA030221EA03014B
:1009B00041EA0241816170477047000008B5054B6C
:1009C0005B69034200D108BD024B5861FFF7F4FF99
:1009D000F9E700BF00040140002836D13E4B1B68F8
:1009E00003F4C063B3F5806F08D03B4AD2F880307F
:1009F00023F48073C2F8803000207047364AD2F862
:100A0000803023F48073C2F88030136823F4C0630D
:100A100043F400731360314B1B68322202FB03F373
:100A20002F4AA2FB03239B0C013300E0013B2A4A1F
:100A3000526912F4806F01D0002BF7D1264B5B690D
:100A400013F4806F44D100207047B0F5007F08D0C8
:100A5000214A136823F4C06343F4806313600020C9
:100A600070471D4B1B6803F4C063B3F5806F08D05B
:100A7000194AD2F8803043F48073C2F880300020E5
:100A80007047154AD2F8803043F48073C2F8803042
:100A9000136823F4C06343F4007313600F4B1B68A7
:100AA000322202FB03F30E4AA2FB03239B0C013309
:100AB00000E0013B084A526912F4806F01D0002B1C
:100AC000F7D1054B5B6913F4806F03D100207047A9
:100AD0000320704703207047007000400000002092
:100AE00083DE1B43024A936843F48043936070475C
:100AF00000700040124BDA6802F00302DB68C3F3B7
:100B000003130133032A11D00E48B0FBF3F00C4B52
:100B1000DB68C3F3062303FB00F0094BDB68C3F378
:100B2000416301335B00B0FBF3F070470648B0FB54
:100B3000F3F0034BDB68C3F3062303FB00F0ECE7A1
:100B4000001002400024F40000366E01002800F07E
:100B5000548270B582B00446036813F0010F37D099
:100B6000A44A936803F00C03D26802F003020C2B32
:100B700023D0082B23D06368B3F5803F4ED0B3F564
:100B8000A02F51D09B4B1A6822F480321A601A6849
:100B900022F480221A606368002B52D0FFF7A2FD76
:100BA0000546944B1B6813F4003F11D1FFF79AFDE3
:100BB000401B6428F5D9032028E2032AD9D18D4BA4
:100BC0001B6813F4003F03D06368002B00F017820A
:100BD000236813F0020F5DD0864A936803F00C037C
:100BE000D26802F003020C2B3AD0042B3AD0E3680F
:100BF000002B75D07F4A136843F480731360FFF7AE
:100C000071FD05467B4B1B6813F4806F5FD1FFF7C6
:100C100069FD401B0228F5D90320F7E1754A1368E6
:100C200043F480331360B6E703F18043A3F53C330C
:100C30001A6842F480221A601A6842F480321A60FC
:100C4000A9E7FFF74FFD05466A4B1B6813F4003F09
:100C5000BED0FFF747FD401B6428F5D90320D5E13E
:100C6000022AC2D1634B1B6813F4806F03D0E36880
:100C7000002B00F0C6815F4A536823F0FE432169D0
:100C800043EA016353605C4B1868FFF7E7FC0028F8
:100C900040F0B981236813F0080F4CD063699BB30F
:100CA000544AD2F8943043F00103C2F89430FFF76D
:100CB00019FD05464F4BD3F8943013F0020F3AD18B
:100CC000FFF710FD401B0228F4D903209EE1494A9A
:100CD000536823F0FE43216943EA01635360D9E777
:100CE000444A136823F480731360FFF7FBFC054646
:100CF000404B1B6813F4806FCCD0FFF7F3FC401B14
:100D00000228F5D9032081E13A4AD2F8943023F041
:100D10000103C2F89430FFF7E5FC0546354BD3F8E4
:100D2000943013F0020F06D0FFF7DCFC401B0228C2
:100D3000F4D903206AE1236813F0040F00F08180E6
:100D40002C4B9B6D13F0805F36D12A4B9A6D42F08D
:100D500080529A659B6D03F080530193019B01259E
:100D6000264B1B6813F4807F28D0A368012B39D051
:100D7000052B45D01F4BD3F8902022F00102C3F879
:100D80009020D3F8902022F00402C3F89020A368AA
:100D9000002B43D0FFF7A6FC0646164BD3F8903045
:100DA00013F0020F4CD1FFF79DFC801B41F28833FA
:100DB0009842F2D9032029E10025D1E70F4A1368B0
:100DC00043F480731360FFF78DFC06460B4B1B68E2
:100DD00013F4807FC9D1FFF785FC801B0228F5D969
:100DE000032013E1034AD2F8903043F00103C2F824
:100DF0009030CCE700100240080000200070004056
:100E00008A4BD3F8902042F00402C3F89020D3F824
:100E1000902042F00102C3F89020B8E7FFF762FC8F
:100E20000646824BD3F8903013F0020F08D0FFF73C
:100E300059FC801B41F288339842F2D90320E5E047
:100E4000E5B9236813F0200F35D0A369E3B1774AE1
:100E5000D2F8983043F00103C2F89830FFF742FC13
:100E60000546724BD3F8983013F0020F23D1FFF7E9
:100E700039FC401B0228F4D90320C7E06B4A936D6C
:100E800023F080539365DCE7684AD2F8983023F06A
:100E90000103C2F89830FFF725FC0546634BD3F8F1
:100EA000983013F0020F06D0FFF71CFC401B0228FD
:100EB000F4D90320AAE0E369002B00F0A6805B4A86
:100EC000926802F00C020C2A69D0022B1DD0574BFD
:100ED0001A6822F080721A60DA6822F00302DA607F
:100EE000DA6822F0887222F48032DA60FFF7FAFBC7
:100EF00004464E4B1B6813F0007F4ED0FFF7F2FB09
:100F0000001B0228F5D9032080E0484A136823F02B
:100F100080731360FFF7E6FB0546444B1B6813F034
:100F2000007F06D0FFF7DEFB401B0228F5D9032027
:100F30006CE03E4AD3683E491940236A606A013832
:100F400043EA0013A06A43EA0023206B40080138FB
:100F500043EA4053606B4008013843EA4063E06A6B
:100F600043EAC0631943D160136843F08073136090
:100F7000D36843F08073D360FFF7B4FB04462B4B78
:100F80001B6813F0007F06D1FFF7ACFB001B0228A3
:100F9000F5D903203AE0002038E0002036E0012BAC
:100FA00036D0224BDB6803F00301226A914231D133
:100FB00003F0F002616A0139B2EB011F2CD103F496
:100FC000FE42A16AB2EB012F28D103F07842E16A18
:100FD000B2EBC16F24D103F4C001226B5208013A75
:100FE000B1EB425F1ED103F0C063626B5208013A5D
:100FF000B3EB426F18D1002008E0012070470120B8
:1010000004E0012002E0012000E0002002B070BDF9
:101010000120FBE70120F9E70120F7E70120F5E7D0
:101020000120F3E70120F1E70120EFE70010024083
:101030000C809F011E4B9B6803F00C03042B33D0E4
:101040001B4B9B6803F00C03082B2FD0184B9B689D
:1010500003F00C030C2B01D000207047144BDA680E
:1010600002F00302DB68C3F303130133032A11D038
:101070001048B0FBF3F00E4BDB68C3F3062303FB11
:1010800000F00B4BDB68C3F3416301335B00B0FB43
:10109000F3F070470848B0FBF3F0054BDB68C3F38F
:1010A000062303FB00F0ECE7024870470248704754
:1010B000001002400024F40000366E01002800F009
:1010C000E680F8B50C460546744B1B6803F00F0329
:1010D0008B420BD2714A136823F00F030B4313604A
:1010E000136803F00F038B4240F0D3802E6816F094
:1010F00001065FD06B68032B2FD0022B4DD0684BBD
:101100001B6813F4806F00F0C680FFF793FF654BF8
:1011100098424DD9624A936823F0F00343F080036C
:10112000936080265E4A936823F0030369680B434B
:101130009360FFF7D7FA0746594B9B6803F00C03FF
:101140006A68B3EB820F35D0FFF7CCFAC01B41F2CF
:1011500088339842F0D9032078E0514B1B6813F094
:10116000007F01D1012071E0FFF7C4FC4D4B984294
:101170001AD94B4B9B6813F0F00F05D02E6816F070
:101180000206CFD0AB688BB9454A936823F0F003D1
:1011900043F0800393608026C4E7414B1B6813F43F
:1011A000003FB2D1012051E00026BBE70026B9E79D
:1011B0000026B7E72B6813F0020F48D013F0040F96
:1011C00004D0374A936843F4E06393602B6813F0CC
:1011D000080F06D0324A936823F47C5343F4E0634B
:1011E00093602F4A936823F0F003A9680B43936040
:1011F0002A4B1B6803F00F03A34230D82B6813F06F
:10120000040F06D0264A936823F4E063E9680B4391
:1012100093602B6813F0080F07D0214A936823F4DA
:101220006053296943EAC1039360FFF703FF1C4B36
:101230009B68C3F303131C4AD35C03F01F03D8401D
:101240001A4B18601A4B1868FFF708FAF8BD802E81
:10125000CED1134A936823F0F0039360C8E70F4A96
:10126000136823F00F0323431360FFF73BFA06468E
:101270000A4B1B6803F00F03A342BFD0FFF732FAFB
:10128000801B41F288339842F2D90320DEE7012027
:1012900070470120DAE70120D8E700BF00200240B4
:1012A0000010024000B4C404F02C0008000000202C
:1012B00008000020014B1868704700BF00000020A4
:1012C00008B5FFF7F7FF054B9B68C3F30223044AF9
:1012D000D35C03F01F03D84008BD00BF00100240DC
:1012E000002D000808B5FFF7E5FF054B9B68C3F329
:1012F000C223044AD35C03F01F03D84008BD00BFDB
:1013000000100240002D0008F0B583B004460368C9
:1013100013F4002F6ED0354B9B6D13F0805F1ED100
:10132000324B9A6D42F080529A659B6D03F0805368
:101330000193019B01262E4A136843F480731360C6
:10134000FFF7D0F905462A4B1B6813F4807F08D1BC
:10135000FFF7C8F9401B0228F5D9032502E0002653
:10136000E9E7002545BB214BD3F8903013F44073D7
:1013700015D0226D9A4212D01C4AD2F8903023F434
:101380004073D2F8901041F48031C2F89010D2F836
:10139000901021F48031C2F89010C2F8903013F010
:1013A000010F10D145B9114AD2F8903023F440739F
:1013B000216D0B43C2F89030EEB10C4A936D23F0CF
:1013C0008053936517E0FFF78DF90746074BD3F875
:1013D000903013F0020FE5D1FFF784F9C01B41F202
:1013E00088339842F2D90325DCE700BF00100240A1
:1013F000007000400025236813F0010F08D09F4AB9
:10140000D2F8883023F0030361680B43C2F88830B8
:10141000236813F0020F08D0984AD2F8883023F0DE
:101420000C03A1680B43C2F88830236813F0040F43
:1014300008D0924AD2F8883023F03003E1680B4399
:10144000C2F88830236813F0080F08D08B4AD2F80E
:10145000883023F0C00321690B43C2F88830236829
:1014600013F0100F08D0854AD2F8883023F4407367
:1014700061690B43C2F88830236813F0200F08D04D
:101480007E4AD2F8883023F44063A1690B43C2F846
:101490008830236813F0400F08D0784AD2F888309B
:1014A00023F44053E1690B43C2F88830236813F0FA
:1014B000800F08D0714AD2F8883023F44043216A63
:1014C0000B43C2F88830236813F4807F08D06B4A3E
:1014D000D2F8883023F44033616A0B43C2F8883075
:1014E000236813F4003F08D0644AD2F89C3023F0FC
:1014F0000303A16A0B43C2F89C30236813F4007FF6
:1015000008D05E4AD2F8883023F44023E16A0B43C6
:10151000C2F88830236813F4806F0CD0574AD2F891
:10152000883023F44013216B0B43C2F88830236BBF
:10153000B3F5801F79D0236813F4006F0CD04F4AA5
:10154000D2F8883023F44003616B0B43C2F8883033
:10155000636BB3F5800F6DD0236813F4805F0CD0FC
:10156000464AD2F8883023F04073A16B0B43C2F88F
:101570008830A36BB3F1807F61D0236813F4005FE0
:101580000CD03E4AD2F8883023F04063E16B0B4325
:10159000C2F88830E36BB3F1006F55D0236813F4C1
:1015A000804F0CD0354AD2F8883023F04063216C4C
:1015B0000B43C2F88830236CB3F1006F49D0236825
:1015C00013F4004F0CD02D4AD2F8883023F040534A
:1015D000616C0B43C2F88830636CB3F1805F3DD01F
:1015E000236813F4803F0CD0244AD2F8883023F0CB
:1015F0004043A16C0B43C2F88830A36CB3F1804F19
:1016000031D0236813F4802F0CD01C4AD2F89C30C0
:1016100023F44013E16C0B43C2F89C30E36CB3F548
:10162000001F25D0284603B0F0BDD36843F48013D3
:10163000D36080E7D36843F48013D3608CE7D3682A
:1016400043F48013D36098E7D36843F48013D360E6
:10165000A4E7D36843F48013D360B0E7D36843F4BE
:101660008033D360BCE7D36843F48033D360C8E7EA
:10167000D36843F48013D360D4E700BF0010024066
:1016800090F83D30DBB2012B35D1022380F83D309C
:1016900003681C4A934220D0B3F1804F1DD0A2F5BD
:1016A0009432934219D002F58062934215D002F52C
:1016B0008062934211D002F5943293420DD002F52C
:1016C0004062934209D002F58052934205D01A68D5
:1016D00042F001021A600020704799680A4A0A40E5
:1016E000062A0AD0B2F5803F09D01A6842F00102FA
:1016F0001A600020704701207047002070470020CA
:10170000704700BF002C0140070001000368364A03
:10171000904216D0B0F1804F13D0A2F5943290428F
:101720000FD002F5806290420BD002F580629042A9
:1017300007D002F59432904203D002F5E052904275
:1017400003D123F070034A681343274A904222D002
:10175000B0F1804F1FD0A2F5943290421BD002F519
:101760008062904217D002F58062904213D002F559
:10177000943290420FD002F5406290420BD002F5B5
:101780008062904207D002F58062904203D002F559
:101790000062904203D123F44073CA68134323F0DC
:1017A00080034A69134303608B68C3620B688362DA
:1017B0000D4B984213D003F5006398420FD003F508
:1017C000406398420BD003F58063984207D003F53D
:1017D0008063984203D003F50063984201D10B69FE
:1017E0000363012343617047002C014060B310B5CF
:1017F000044690F83D3013B3022384F83D3021466F
:1018000051F8040BFFF782FF012384F8483084F875
:101810003E3084F83F3084F8403084F8413084F81A
:10182000423084F8433084F8443084F8453084F8FA
:10183000463084F8473084F83D30002010BD80F8F1
:101840003C30FEF7D9FED7E70120704770B504465B
:10185000016883680269134342691343C2691343F1
:101860000868964A02401A430A602268536823F4C3
:101870004053E1680B435360A1692268904B9A4240
:1018800001D0236A1943936823F06E4323F4306335
:101890000B4393602268D36A23F00F03616A0B4302
:1018A000D3622368874A934210D0874A934221D05B
:1018B000864A934237D0864A93425CD0854A934207
:1018C0006BD07F4A93427DD010223AE002F5584215
:1018D000D2F8882002F00302032A09D8DFE802F0D8
:1018E0000204870601222CE004222AE0082228E0D4
:1018F000102226E002F5E632D2F8882002F00C022F
:101900000C2A0ED8DFE802F0070D0D0D090D0D0DA4
:10191000750D0D0D0B00002213E0042211E00822CA
:101920000FE010220DE002F5E432D2F8882002F038
:101930003002202A5FD01AD8002A5ED0102A5ED149
:1019400004225F498B4276D0E069B0F5004F00F089
:10195000C980082A00F23481DFE812F0F70019018B
:10196000F50032011C013201320132011F01302A1F
:1019700047D10822E5E702F5E232D2F8882002F0EA
:10198000C002802A3FD004D8FAB3402A3FD10422B3
:10199000D7E7C02A3DD10822D3E702F5E032D2F8DA
:1019A000882002F44072B2F5007F34D005D8A2B38B
:1019B000B2F5807F33D10422C3E7B2F5407F30D146
:1019C0000822BEE702F5C832D2F8882002F440624D
:1019D000B2F5006F27D005D83AB3B2F5806F26D1A3
:1019E0000422AEE7B2F5406F23D10822A9E7022214
:1019F000A7E70222A5E70222A3E70022A1E710221F
:101A00009FE710229DE702229BE7002299E7102220
:101A100097E7102295E7022293E7002291E7102230
:101A20008FE710228DE702228BE7002289E7102240
:101A300087E7102285E7082A00F2B280DFE802F08B
:101A400008B03BB038B0B0B005004FF4004004E03F
:101A5000FFF736FC002800F0A580626A1E4B33F8C1
:101A60001220B0FBF2F3656805EB4501994200F2E4
:101A70009B80B3EB053F00F2998000263346314648
:101A8000FEF7FEFB090241EA106100026B08C01874
:101A90002A46334641F10001FEF7F2FBA0F5407201
:101AA0000E4B9A4200F284802368D860304665E08D
:101AB000FFF7C0FACEE70A48CFE700BFF369FFCFD0
:101AC00000800040003801400044004000480040D1
:101AD000004C004000500040082D0008FFFC0F00A3
:101AE0000024F400082A65D8DFE802F0072705641F
:101AF0002A6464640B00354803E0FFF7E1FB00282B
:101B00005AD0626A324B33F81230B0FBF3F062689D
:101B1000530803EB4003B3FBF2F3A3F110014FF6BC
:101B2000EF7291424AD89AB222F00F02C3F34203F5
:101B300013432268D360002020E0FFF7D3FBDEE7E9
:101B4000FFF778FADBE7214803E0FFF7B9FB00284D
:101B500038D0626A1E4B33F81230B0FBF3F0636882
:101B600000EB5300B0FBF3F0A0F110024FF6EF735F
:101B70009A4229D8236880B2D86000200123A4F8B3
:101B80006A30A4F8683000232367636770BDFFF7ED
:101B9000A9FBDCE7FFF74EFAD9E74FF40040D8E79E
:101BA0000120EBE70020E9E70120E7E70120E5E776
:101BB0000120E3E70120E1E70020DFE70120DDE786
:101BC0000120DBE70020D9E70120D7E70024F4005B
:101BD000082D0008836A13F0010F06D002685368CD
:101BE00023F40033C16A0B435360836A13F0020F7E
:101BF00006D00268536823F48033016B0B435360B3
:101C0000836A13F0040F06D00268536823F480231C
:101C1000416B0B435360836A13F0080F06D00268D0
:101C2000536823F40043816B0B435360836A13F0C2
:101C3000100F06D00268936823F48053C16B0B43E6
:101C40009360836A13F0200F06D00268936823F430
:101C50000053016C0B439360836A13F0400F0AD06A
:101C60000268536823F48013416C0B435360436C48
:101C7000B3F5801F0BD0836A13F0800F06D0026883
:101C8000536823F40023C16C0B4353607047026810
:101C9000536823F4C003816C0B435360EBE72DE9D9
:101CA000F84305460F4616469946DDF820802B6816
:101CB000DC6937EA04040CBF01240024B44257D184
:101CC000B8F1FF3FF3D0FEF70DFDA0EB0900404552
:101CD0002FD8B8F1000F2CD02B681A6812F0040F1F
:101CE000E5D0DA6912F4006FE1D04FF400621A62B5
:101CF0002A6852E8003F23F4D07342E800310029FB
:101D0000F6D12A6802F1080353E8003F23F00103EB
:101D1000083242E800310029F3D12023C5F884308D
:101D2000C5F88830C5F88C30002385F88030032052
:101D30001FE02A6852E8003F23F4D07342E80031E4
:101D40000029F6D12A6802F1080353E8003F23F086
:101D50000103083242E800310029F3D12023C5F8FD
:101D60008430C5F88830002385F88030032000E0F7
:101D70000020BDE8F8832DE9F04182B01E46D0F87E
:101D80008430202B58D104460D469046002957D068
:101D9000002A57D090F88030012B55D0012380F8CD
:101DA00080300023C0F88C302123C0F88430FEF747
:101DB00099FC0746A4F85480A4F85680A368B3F5AC
:101DC000805F05D04FF00008002384F8803014E0D5
:101DD000236913B14FF00008F6E7A8460025F3E7A2
:101DE00038F8023B2268C3F308039362B4F8562024
:101DF00092B2013A92B2A4F85620B4F856309BB28F
:101E000073B100963B46002280212046FFF747FF32
:101E1000E0B9002DE4D015F8012B23689A62E5E7BC
:101E200000963B46002240212046FFF738FF78B954
:101E30002023C4F8843000E0022002B0BDE8F08125
:101E40000120FAE70120F8E70220F6E70320F4E793
:101E50000320F2E730B583B004460023C0F88C308D
:101E6000FEF740FC05462268126812F0080F0FD1F9
:101E700023681B6813F0040F18D12023C4F88430A2
:101E8000C4F888300020E06684F8800003B030BDDC
:101E90006FF07E430093034600224FF4001120466A
:101EA000FFF7FDFE0028E3D00320EFE76FF07E434D
:101EB00000932B4600224FF480012046FFF7EFFEEF
:101EC0000028DAD00320E1E778B310B50446D0F853
:101ED00084300BB32423C4F884302268136823F0C1
:101EE000010313602046FFF7B1FC012813D0A36A59
:101EF000BBB92268536823F4904353602268936807
:101F000023F02A0393602268136843F001031360EF
:101F10002046FFF79FFF10BD80F88030FEF72AFBB8
:101F2000D8E72046FFF756FEE3E7012070470000A0
:101F3000436E2BB90123A0F86A30A0F868307047CF
:101F400030B403689A68C2F342629968490F094D38
:101F50006B5CDB00084C615C93FBF1F3A0F86A302A
:101F6000AB5CDB00A25C93FBF2F3A0F8683030BC02
:101F7000704700BF282D0008202D000890F8803001
:101F8000012B18D0012380F880302423C0F884303E
:101F900003681A68196821F00101196022F00052E3
:101FA0000023436601680A602022C0F8842080F87C
:101FB0008030184670470220704738B590F880305E
:101FC000012B1DD00446012380F880302423C0F863
:101FD000843003681D681A6822F001021A600268E2
:101FE000936823F0604319439160FFF7A1FF2368D2
:101FF0001D602023C4F88430002084F8800038BDA0
:102000000220FCE738B590F88030012B1DD0044643
:10201000012380F880302423C0F8843003681D68D1
:102020001A6822F001021A600268936823F0606364
:1020300019439160FFF77CFF23681D602023C4F8DB
:102040008430002084F8800038BD0220FCE70000C6
:102050000D4885460D480E490E4A002302E0D4582B
:10206000C4500433C4188C42F9D30B4A0B4C0023E0
:1020700001E013600432A242FBD3FEF7E5FA00F060
:1020800039F8FEF71FFAFEE70000022000000020EA
:102090005C000020742D00085C000020A4020020D9
:1020A000FEE700000EB400B59CB01DAB0290069098
:1020B0006FF00041094807910491094953F8042B36
:1020C00005910068019302A900F082F9029B0022A9
:1020D0001A701CB05DF804EB03B070475800002084
:1020E0000802FFFF02440346934200D1704703F801
:1020F000011BF9E770B50D4D0D4C641BA4100026B3
:10210000A64209D10B4D0C4C00F0D2FD641BA4106B
:102110000026A64205D170BD55F8043B984701360C
:10212000EEE755F8043B98470136F2E76C2D0008BE
:102130006C2D00086C2D0008702D0008704770474A
:1021400037B5002944D051F8043C0190002BA1F18F
:102150000404B8BFE41800F0D5F81E4A01981368CB
:1021600033B96360146003B0BDE8304000F0D0B80C
:10217000A34208D9256861198B4201BF19685B68C1
:1021800049192160EDE71A465B680BB1A342FAD901
:1021900011685518A5420BD1246821445418A34254
:1021A0001160E0D11C685B6853600C441460DAE78E
:1021B00002D90C230360D6E7256861198B4204BF5E
:1021C00019685B68636004BF491921605460CAE7FD
:1021D00003B030BD9802002070B50E4E0C46316839
:1021E000054611B900F09CFB30602146284600F0FE
:1021F00097FB431C0AD0C41C24F00304A04207D060
:10220000211A284600F08CFB013001D14FF0FF3439
:10221000204670BD9C0200202DE9F041CD1C25F028
:10222000030508350C2D38BF0C25002D074601DBB2
:10223000A94205D90C233B6000263046BDE8F08159
:102240002F4E00F05FF833681C4644BB29463846E1
:10225000FFF7C2FF431C04464FD134682646002EC8
:1022600042D1002C43D023683146384604EB0308A2
:1022700000F056FB80453AD123680335ED1A25F06E
:10228000030508350C2D38BF0C2529463846FFF7C5
:10229000A3FF01302BD023682B4423600EE022687B
:1022A000521B1ED40B2A16D96119A342256018BFF0
:1022B0005960636808BF316062514B60384604F171
:1022C0000B0600F025F826F00706231DF21AB4D0FD
:1022D0009B1BA350B1E76268A3420CBF32605A60F7
:1022E000ECE723466468B0E734467668B7E70C232A
:1022F0003B60384600F00CF89FE72560DEE700BF42
:10230000980200200148FFF719BF00BF9402002087
:102310000148FFF714BF00BF940200202DE9F047E9
:102320008E681F46BE420B6882460C4690462CD8EB
:102330008A8912F4906F26D06569096905EB450515
:10234000A3EB010905EBD5757B1C4B446D109D4239
:1023500038BF1D46530527D52946FFF75DFF0646C2
:1023600060B321694A4600F0EBFAA38923F4906335
:1023700043F08003A381266165614E44A5EB090506
:102380002660A5603E46BE4200D93E4620683246E1
:10239000414600F0ABFAA3689B1BA360236833445B
:1023A00023600020BDE8F0872A4600F0D7FA0646F1
:1023B0000028E0D121695046FFF7C2FE0C23CAF87D
:1023C0000030A38943F04003A3814FF0FF30E9E7D9
:1023D0002DE9F04F98468B891B069DB007460D46A8
:1023E00014460ED50B6963B94021FFF715FF28602D
:1023F000286120B90C233B604FF0FF30D0E0402330
:102400006B610023099320238DF82930CDF80C80CF
:102410003023DFF8A4818DF82A304FF001092346DC
:102420009A4613F8012B0AB1252AF9D1BAEB040B0D
:102430000BD05B46224629463846FFF76FFF013036
:1024400000F0A980099A5A4409929AF80030002BAA
:1024500000F0A18000234FF0FF32CDE905230AF1FF
:10246000010A049307938DF853301A9354460522BA
:1024700014F8011B5048FDF7B3FE049AD8B9D006F2
:1024800044BF20238DF85330110744BF2B238DF810
:1024900053309AF800302A2B15D0079A5446002062
:1024A0004FF00A0C214611F8013B303B092B4DD966
:1024B000B0B1079214E0A0EB080309FA03F3134349
:1024C0000493A246D2E7039B191D1B680391002BBE
:1024D000BBBF5B4242F0020207930793B8BF04926E
:1024E00023782E2B0CD163782A2B34D1039B1A1D11
:1024F0001B680392002BB8BF4FF0FF3302340593E3
:10250000DFF8C4A0217803225046FDF769FE38B1F8
:10251000049BA0EB0A004022824013430134049341
:1025200014F8011B25488DF828100622FDF758FEE7
:10253000002838D0224B1BBB039B073323F0070333
:1025400008330393099B3344099368E70CFB023279
:102550000C460120A6E700230134059319464FF0ED
:102560000A0C204610F8012B303A092A03D9002B17
:10257000C6D00591C4E70CFB012104460123F0E716
:1025800003AB00932A460F4B04A93846AFF30080F3
:10259000421C0646D6D1AB895B063FF52DAF0998A4
:1025A0001DB0BDE8F08F03AB00932A46054B04A98C
:1025B000384600F079F8EBE7302D00083A2D000896
:1025C000000000001D230008362D00082DE9F0470B
:1025D000164699468A680B69DDF820809342B8BF99
:1025E0001346336091F8432007460C460AB1013385
:1025F00033602368990642BF33680233336025682D
:1026000015F0060506D104F1190AE36832689B1A31
:10261000AB4226DC94F84320131E226818BF012326
:1026200092062BD404F1430249463846C047013094
:102630001ED02368226903F00603042B02BFE5685D
:102640003368ED1AA3680CBF25EAE57500259342AF
:10265000C4BF9B1AED1800261A34B5421AD10020C7
:1026600008E00123524649463846C047013003D1AD
:102670004FF0FF30BDE8F0870135C6E7E1185A1C7E
:10268000302081F84300224494F8451082F843102A
:102690000233C7E70123224649463846C047013086
:1026A000E6D00136D9E700002DE9FF470F7E0C9DEB
:1026B000782F914680460C469A4601F1430207D88E
:1026C000622F0AD8002F00F0D480582F00F0C0806D
:1026D00004F1420584F842703AE0A7F16303152B38
:1026E000F6D801A151F823F041270008552700082A
:1026F000D1260008D1260008D1260008D1260008DE
:1027000055270008D1260008D1260008D126000848
:10271000D12600085928000881270008132800083E
:10272000D1260008D12600087B280008D126000801
:1027300081270008D1260008D12600081B280008A0
:102740002B681A1D1B682A6004F1420584F8423088
:1027500001239FE020682B68070603F1040129602C
:1027600001D51E6803E04606FBD5B3F90060002ED4
:1027700003DA2D23764284F843305A480A2312E0C4
:102780002B682068191D2960050601D51E6802E026
:102790004106FBD51E8853486F2F0CBF08230A2320
:1027A000002184F843106568A560002DA2BF216850
:1027B00021F0040121600EB9002D4BD01546B6FB67
:1027C000F3F103FB1167C75D05F8017D3746BB4296
:1027D0000E46F4D9082B0BD12368DE0708D52369F0
:1027E00061689942DEBF302305F8013C05F1FF35F1
:1027F000521B2261CDF800A04B4603AA2146404659
:10280000FFF7E4FE01304AD14FF0FF3004B0BDE8DD
:10281000F087236843F0200323603348782784F847
:102820004570236829681F0651F8046B02D45F06BF
:1028300048BFB6B2DF0748BF43F02003296048BF56
:1028400023601EB9236823F0200323601023A7E729
:102850002448E4E71546BDE72B6826686169181D22
:10286000286035061B6801D5196002E07006FBD5AB
:102870001980002323611546BCE72B681A1D2A60C6
:102880001D68626800212846FDF7AAFC08B1401BBC
:10289000606063682361002384F84330AAE72369FA
:1028A0002A4649464046D0470130ADD023689B07B1
:1028B00013D4E068039B9842B8BF1846A6E70123EB
:1028C000324649464046D04701309DD00135E36845
:1028D00003995B1AAB42F2DCEBE7002504F1190621
:1028E000F5E700BF412D0008522D0008884210B5C1
:1028F00001EB020402D98442234607D8431EA142B9
:1029000008D011F8012B03F8012FF8E70244014623
:102910008A4200D110BD13F8014D02F8014DF7E7CE
:1029200038B5064D0023044608462B6000F04EF8EB
:10293000431C02D12B6803B1236038BD90020020F4
:102940000A44914200F1FF3300D1704710B511F8ED
:10295000014B03F8014F9142F9D110BD2DE9F0412F
:10296000804614460E4621B9BDE8F0411146FFF7F6
:1029700053BC2AB9FFF7E4FB25462846BDE8F081A1
:1029800000F01BF88442074602D8B4EB500F12D86F
:1029900021464046FFF740FC05460028EDD0BC42EA
:1029A0002246314628BF3A46FFF7CAFF3146404625
:1029B000FFF7C6FBE1E73546DFE751F8043C181F97
:1029C000002BBCBF0B58C01870470000044A0549D3
:1029D0001368002B08BF0B46184410601846704758
:1029E000A0020020A80200202DE9F047089E0D4615
:1029F00004460F46002B4AD18A42944665D9B2FA62
:102A000082F343B102FA03FCC3F120029F4020FA93
:102A100002F217439C404FEA1C4E1FFA8CF5B7FB9D
:102A2000FEF1220C0EFB117742EA074201FB05F092
:102A300090420AD91CEB020201F1FF3780F01C81A1
:102A4000904240F2198102396244121AA4B2B2FBD8
:102A5000FEF00EFB102244EA024400FB05F5A542FD
:102A60000AD91CEB040400F1FF3280F00781A54273
:102A700040F204816444023840EA0140641B0021B2
:102A80001EB1DC400023C6E90043BDE8F0878B425D
:102A900008D9002E00F0ED800021C6E900050846A7
:102AA000BDE8F087B3FA83F1002949D1AB4202D3E4
:102AB000824200F2F880841A65EB03020120174677
:102AC000002EE2D0C6E90047DFE702B9FFDEB2FA26
:102AD00082F3002B40F090808A1A4FEA1C471FFABD
:102AE0008CFE0121B2FBF7F507FB1520220C42EA10
:102AF00000420EFB05F0904208D91CEB020205F1E2
:102B0000FF3802D2904200F2CB804546121AA4B29E
:102B1000B2FBF7F007FB102244EA02440EFB00FE72
:102B2000A64508D91CEB040400F1FF3202D2A645E9
:102B300000F2BB801046A4EB0E0440EA05409FE77C
:102B4000C1F120078B4022FA07FC4CEA030C05FA7E
:102B500001F420FA07F3FD404FEA1C492343B5FB7B
:102B6000F9F81FFA8CFE09FB18551C0C44EA0544C1
:102B700008FB0EF5A54202FA01F200FA01F00BD9AA
:102B80001CEB040408F1FF3A80F08880A54240F273
:102B90008580A8F102086444641B9DB2B4FBF9F37C
:102BA00009FB134445EA044403FB0EFEA64508D97D
:102BB0001CEB040403F1FF356CD2A6456AD9023B35
:102BC000644443EA0843A3FB0295A4EB0E04AC4221
:102BD000C846AE4656D353D056B1B0EB080264EBAC
:102BE0000E0404FA07F7CA40CC401743C6E9007444
:102BF00018460021BDE8F087C3F1200102FA03FC6A
:102C000020FA01F225FA01F19D402A434FEA1C47C0
:102C10001FFA8CFEB1FBF7F007FB1015110C41EA0F
:102C2000054100FB0EF58D4204FA03F408D91CEBB4
:102C3000010100F1FF382FD28D422DD902386144B5
:102C4000491B92B2B1FBF7F507FB151142EA0142AD
:102C500005FB0EF1914208D91CEB020205F1FF3889
:102C600016D2914214D9023D6244521A45EA0041FB
:102C700038E73146304608E73946E6E61046FBE6D7
:102C80004845A9D2B9EB020865EB0C0E013BA3E75E
:102C90004546EAE72B4694E74046D1E7D0467BE736
:102CA000023D624432E708460AE76444023842E7DC
:102CB000F8B500BFF8BC08BC9E467047F8B500BF29
:082CC000F8BC08BC9E467047F9
:102CC80054696D652074657374210D0A0000000055
:102CD80054696D6520656C61707365643A2025647C
:102CE8002075730D0A0000000000000000000000BD
:102CF800010203040607080900000000010203049A
:102D0800010002000400060008000A000C00100080
:102D180020004000800000010804020408010101AD
:102D28000101010307010000232D302B2000686CEE
:102D38004C006566674546470030313233343536D6
:102D4800373839414243444546003031323334350F
:0C2D58003637383961626364656600003C
:082D640084FCFF7F0100000068
:042D6C00D902000880
:042D7000B5020008A0
:102D74000024F40001000000100000000000000026
:102D840058010020C001002028020020000000009B
:102D9400000000000000000000000000000000002F
:102DA400000000000000000000000000000000001F
:102DB400000000000000000000000000000000000F
:0C2DC40000000000000000000C000020D7
:04000005080020517E
:00000001FF
