:020000040800F2
:100000000000022051310008E9070008EB07000852
:10001000ED070008EF070008F107000800000000E6
:10002000000000000000000000000000F3070008CE
:10003000F507000800000000F7070008F9070008AE
:10004000A1310008A1310008A1310008A131000848
:10005000A1310008A1310008A1310008A131000838
:10006000A1310008A1310008A1310008A131000828
:10007000A1310008A1310008A1310008A131000818
:10008000A1310008A1310008A1310008A131000808
:10009000A1310008A1310008A1310008A1310008F8
:1000A000A131000801080008A1310008A1310008B1
:1000B000A1310008A1310008A1310008A1310008D8
:1000C000A1310008A1310008A1310008A1310008C8
:1000D000A1310008A1310008A1310008A1310008B8
:1000E00011080008A1310008A1310008A131000861
:1000F000A1310008A1310008A1310008A131000898
:10010000A1310008A1310008A1310008A131000887
:10011000A1310008A1310008A1310008A131000877
:10012000A1310008A1310008A1310008A131000867
:10013000A1310008A1310008A1310008A131000857
:10014000A1310008A1310008A1310008A131000847
:10015000A1310008A1310008A1310008A131000837
:10016000A1310008A1310008A1310008A131000827
:10017000A1310008A1310008A1310008A131000817
:10018000A1310008A1310008A1310008A131000807
:10019000A131000800000000A1310008A1310008D1
:1001A000A1310008A1310008A1310008A1310008E7
:1001B000A1310008A1310008A1310008A1310008D7
:1001C000A1310008A1310008A1310008A1310008C7
:0801D000A1310008A131000873
:1001E000034613F8012B002AFBD1181A0138704777
:1001F00001F0FF01102A2BDB10F0070F08D010F8D8
:10020000013B013A8B422DD010F0070F42B3F6D1DB
:10021000F0B441EA012141EA014122F007047FF0F4
:1002200000070023F0E80256083C85EA010586EA4B
:10023000010685FA47F5A3FA87F586FA47F6A5FA87
:1002400087F68EB9EED1F0BC01F0FF0102F0070293
:1002500032B110F8013B013A83EA010313B1F8D13E
:100260000020704701387047002D06BF354603381F
:10027000073815F0010F07D1013015F4807F02BF58
:10028000013015F4C03F0130F0BC0138704700BFA9
:1002900053B94AB9002908BF00281CBF4FF0FF31ED
:1002A0004FF0FF3000F00CB8ADF1080C6DE904CE52
:1002B00003F01AFCDDF804E0DDE9022304B0704726
:1002C000704700BF10B5054C237833B9044B13B108
:1002D0000448AFF300800123237010BD5C000020B0
:1002E00000000000B03D000808B5034B1BB10349F6
:1002F0000348AFF3008008BD00000000600000204C
:10030000B03D000810B58AB0002405940694079407
:1003100008940994254BDA6C42F00402DA64DA6C32
:1003200002F004020192019ADA6C42F02002DA64CF
:10033000DA6C02F020020292029ADA6C42F00102B8
:10034000DA64DA6C02F001020392039ADA6C42F08A
:100350000202DA64DB6C03F002030493049B22467E
:1003600020214FF0904001F083FA4FF400530593A1
:100370004FF488130693079405A90D4801F08EF9F0
:1003800020230593012306930794089405A94FF0B1
:10039000904001F083F922462146282001F024F9FB
:1003A000282001F059F90AB010BD00BF001002402A
:1003B000000800480268144B9A4200D07047134B63
:1003C0001A6801321A60124981FB0231D317C3EB5C
:1003D000E10303EB830303EB83039A4203D10D4B49
:1003E00001221A6070470C4981FB02311144D31776
:1003F000C3EB611303EB8303C3EBC3039A42DDD169
:10040000064B01221A60D9E700440140C8010020D0
:100410001F85EB5178000020EBA00EEA7C00002045
:1004200072B6FEE708B51548154B03604FF4E1338B
:10043000436000238360C36003610C2242618361D7
:1004400003624362836202F0BFFD70B900210B4872
:1004500002F033FE58B90021084802F053FE40B9BB
:10046000064802F00BFE30B908BDFFF7D9FFFFF7D1
:10047000D7FFFFF7D5FFFFF7D3FF00BFEC00002049
:100480000080004008B50948094B036043F2E0339F
:100490004360002383606322C26003614361836120
:1004A00002F01CFA00B908BDFFF7BAFF7C0100207A
:1004B0000044014010B58CB0002409940A940B94B8
:1004C0002022214601A802F08DFE1E484FF0A043D5
:1004D00003604FF4003343608460C460046144618E
:1004E00004238361047744770123036280F8244066
:1004F000C462046380F83840C46380F8404000F070
:10050000F5F9C8B90023099309A90E4800F070FF56
:10051000A0B90D4B019306230293002303937F227E
:1005200004920422059206930DEB0201054800F0A7
:10053000E1FB28B90CB010BDFFF772FFFFF770FFA9
:10054000FFF76EFF800000200200300400B595B078
:100550003822002106A802F045FE002301930293F1
:100560000393049305934FF4007001F095F902236F
:1005700006934FF48072099240220A920D930E93D3
:1005800004220F925522109211931293139306A8EE
:1005900001F03CFA88B90F23019303230293A023AF
:1005A0000393002104914FF4E063059301A801F047
:1005B000E5FC20B915B05DF804FBFFF731FFFFF74C
:1005C0002FFF000010B584B000F05AF9FFF7BEFF0E
:1005D000FFF798FEFFF726FFFFF754FFFFF76AFFCC
:1005E0001B4801F0ADFF2AE01A4B00221A602AE0F6
:1005F000194B00221A60012211464FF0904001F081
:1006000037F9164C204600F059FE4FF0FF312046D6
:1006100000F0C0FA204600F069FB82B2104901A840
:1006200002F0C0FD01A8FFF7DBFD4FF0FF3382B2FF
:1006300001A90C4802F01FFC012000F043F9054B12
:100640001B68012BD0D0044B1B68012BD0D0D2E704
:100650007C010020780000207C0000208000002029
:10066000C83D0008EC00002000B583B00B4B1A6EAB
:1006700042F001021A661A6E02F001020092009A1C
:100680009A6D42F080529A659B6D03F080530193FE
:10069000019B01F087F903B05DF804FB00100240F4
:1006A00010B59CB0044600211791189119911A9128
:1006B0001B91542202A802F095FD2368B3F1A04FCC
:1006C00001D01CB010BD4FF4004302934FF0005313
:1006D000139302A801F078FDF0B9114BDA6C42F4E3
:1006E0000052DA64DA6C02F400520092009ADA6C7A
:1006F00042F00102DA64DB6C03F001030193019B19
:1007000001231793032318930023199317A94FF07C
:10071000904000F0C3FFD4E7FFF782FEDDE700BFA3
:100720000010024010B59CB00446002117911891AA
:1007300019911A911B91542202A802F053FD2268CC
:10074000174B9A4201D01CB010BD2023029302A87F
:1007500001F03AFD00BB134BDA6D42F00102DA659D
:10076000DA6D02F001020092009ADA6C42F00102A6
:10077000DA64DB6C03F001030193019B0C231793F4
:1007800002221892002219921A921B9317A94FF075
:10079000904000F083FFD6E7FFF742FEDBE700BFA3
:1007A000008000400010024002680E4B9A4200D0C8
:1007B000704700B583B003F54C431A6E42F4003223
:1007C0001A661B6E03F400330193019B002211464D
:1007D000192000F009FF192000F03EFF03B05DF87A
:1007E00004FB00BF00440140FEE7FEE7FEE7FEE732
:1007F000FEE770477047704708B500F051F808BD34
:1008000008B5024801F0EAFE08BD00BF7C010020E7
:1008100008B54FF4005001F031F808BD034AD2F892
:10082000883043F47003C2F88830704700ED00E070
:10083000104B1B680BB90120704710B504464FF4EC
:100840007A70B0FBF3F30C4A1068B0FBF3F000F0E1
:1008500011FF68B90F2C01D901200AE000222146BE
:100860004FF0FF3000F0C0FE044B1C60002000E0A1
:10087000012010BD0400002000000020080000201E
:1008800010B5032000F09EFE0020FFF7D1FF10B14D
:100890000124204610BD0446FFF7E6FEF9E70000FC
:1008A000034A1368034909680B441360704700BF8B
:1008B000CC01002004000020014B1868704700BFE5
:1008C000CC01002038B50446FFF7F6FF0546B4F129
:1008D000FF3F02D0044B1B681C44FFF7EDFF401B99
:1008E000A042FAD338BD00BF0400002030B583B069
:1008F00000230193002800F038810446C36D13B330
:1009000023689A6812F0005F05D09A6822F02042AE
:1009100022F03F029A602268936813F0805F1FD133
:10092000936823F0104323F03F0343F08053936018
:100930008F4B1B689B098F4AA2FB03239B09013342
:100940005B00019309E0FFF7ABFE0023236684F808
:100950005830D5E7019B013B0193019B002BF9D156
:100960002268936813F0805F3DD1E36D43F010037C
:10097000E365236E43F0010323660120936813F0BF
:10098000040300D00123E16D11F0100F40F0E68068
:10099000002B40F0E380E36D23F4817343F0020306
:1009A000E365936813F0010F3ED1B2F1A04F1CD064
:1009B000714B9A4219D0714B996811F0010100D026
:1009C00001216F4B9B6813F0010300D001230B43FF
:1009D0006C49896811F0010100D001210B430CBF63
:1009E0000123002312E00020C8E74FF0A0439968DC
:1009F00011F0010100D001215F4B9B6813F001034E
:100A000000D001230B430CBF0123002363B1B2F1DB
:100A1000A04F72D0584B9A426DD05B4963688A6888
:100A200022F47C1213438B60627FE36B43EA423310
:100A3000E2681343A268134394F8242043EA024374
:100A4000012A5CD0E26A22B102F47872216B0A4377
:100A500013432168CD684D4A2A401A43CA60226870
:100A6000136923F04063616B0B43136121688B684A
:100A700013F0040300D001238A6812F0080200D0AA
:100A800001224BBB42BB237F94F83820520042EA3C
:100A90008332CB6823F4804323F002031343CB60FB
:100AA0002369002B30D02268136943F4803313612B
:100AB0002268D2F8C03023F47F5323F03F0321692A
:100AC0000B43C2F8C03094F84030012B2BD0226881
:100AD000136923F0010313616369012B35D0226888
:100AE000136B23F00F031363E36D23F0030343F051
:100AF0000103E36537E0264990E725498EE7A26ABE
:100B0000013A43EA42439DE72268136923F48033A4
:100B100013612268D2F8C03023F47F5323F03F03DF
:100B2000C2F8C030CFE721680B6923F4FF6323F0DC
:100B30000403626CA56C2A43E56C2A43256D2A43A5
:100B4000134343F001030B61C6E721680B6B23F0ED
:100B50000F03226A013A13430B63C5E7E36D43F0C9
:100B60001003E365012003B030BD0120FBE700BFA7
:100B700000000020632D3E050001005000040050DD
:100B80000005005000060050000700500740F0FF2D
:100B9000000300502DE9F04104460E460368B3F10E
:100BA000A04F21D04E4A93421BD04E4A976807F07F
:100BB0001F07A569082D1ED0092F05D840F2212254
:100BC000FA4012F0010F11D1B3F1A04F3AD0444ACC
:100BD000934235D0434B9B6813F4604F34D10425C6
:100BE00009E002F50072E1E73F4ADFE7DB6813F056
:100BF000010F1FD10425FFF75FFE804623681A68A6
:100C00002A4227D1B6F1FF3FF8D0FFF755FEA0EBFF
:100C10000800B04201D8002EF0D123681B682B4297
:100C2000ECD1E36D43F00403E365002384F858300E
:100C3000032050E0E36D43F02003E36501204AE028
:100C4000294BC8E7284BC6E7E36D43F02003E36573
:100C5000012040E0E26D42F40072E265DA6812F4CD
:100C6000406F11D1627F7AB91A6812F0080F0BD069
:100C7000E26D22F48072E265E26D12F4805F03D1CE
:100C8000E26D42F00102E265154A934213D002F58B
:100C9000806293420CD01A4693420FD0092F05D898
:100CA00040F22121F94011F0010F07D1D26806E08E
:100CB000A2F58072F0E74FF0A042EDE7DA68082D68
:100CC00006D012F4804F08D10C221A60002002E0F6
:100CD00008221A600020BDE8F0810020FBE700BF79
:100CE0000001005000070050000300500368186C1A
:100CF00070470000F0B583B00022019290F85820B0
:100D0000012A00F080820346012280F858200568FD
:100D1000A86810F0040F09D0DA6D42F02002DA65FD
:100D20000120002283F8582003B0F0BD4C68303514
:100D3000220A920002F00C02A85804F01F0E1F2491
:100D400004FA0EF420EA04000C68C4F3846C0CFA74
:100D50000EFC40EA0C00A8501868826812F00402E9
:100D600000D00122846814F0080400D00124002A75
:100D70004ED1002C4CD18F68B7F1004F00F0848029
:100D80000E681430720E920002F004028558C6F309
:100D9000045E072606FA0EF625EA060C07FA0EF59B
:100DA0004CEA050585501868426922F0004242610C
:100DB0004D691868C268C2F3C102520095400E69BD
:100DC000042E79D0603050F82670AD4A3A400F6852
:100DD00007F0F8473D432A4342F0004240F82620FE
:100DE0001A680E698869603252F8265025F08075BD
:100DF000284342F826001A680D69087F012858D058
:100E0000603252F8250020F00070044342F825407B
:100E10001A68906810F0010F12D10868CD68994CDB
:100E2000A54200F0B180D2F8B040C0F3120024EA2D
:100E30000000C2F8B000C868924A904200F0AC804E
:100E40000A6891490A4200F0D8811968B1F1A04FAF
:100E500000F071818D48814200F06A818C48806881
:100E600000F0E0748B4DAA4200F067818A4DAA42DF
:100E700000F06381894DAA4200F09281884DAA4218
:100E800000F0A68100204CE70D6814306A0E920035
:100E900002F004028658C5F30455072707FA05F542
:100EA00026EA050585501868426942F00042426111
:100EB0007EE74FF00074A3E7026E046EC4F384640F
:100EC0000A68C2F3120585BBC2F38462944234D02F
:100ED0001C68626E606EC0F384600A68C2F312051B
:100EE00085BBC2F38462904234D01C68A26EA06EAF
:100EF000C0F384600A68C2F3120585BBC2F3846242
:100F0000904234D01C68E26EE06EC0F384600A68E0
:100F1000C2F3120585BBC2F3846290427FF478AFBE
:100F2000E26E22F00042E26672E792FAA2F212B199
:100F3000B2FA82F2CAE72022C8E7026E22F000422B
:100F40000266C5E792FAA2F212B1B2FA82F2CAE7D9
:100F50002022C8E7626E22F000426266C5E792FA7C
:100F6000A2F212B1B2FA82F2CAE72022C8E7A26E58
:100F700022F00042A266C5E792FAA2F212B1B2FADA
:100F800082F2CAE72022C8E7D2F8B040C0F31200CC
:100F90002043C2F8B0004EE71C680A68C2F312058D
:100FA000002D36D1900E013000F01F0009288CBFB3
:100FB00000200120002875D0002D39D1900E01307D
:100FC000800600F0F840002D3ED1970E013707F063
:100FD0001F070126BE403043002D43D1920E01323F
:100FE00002F01F0202EB4202120510438D6804F169
:100FF0001407420E920002F00402BC58C0F30450E1
:101000000726864024EA060C85404CEA0505BD50BB
:1010100016E792FAA2F048B1B0FA80F0013000F081
:101020001F0009288CBF00200120C3E72020F5E71E
:1010300092FAA2F030B1B0FA80F00130800600F0F0
:10104000F840C0E72020F8E792FAA2F646B1B6FAD7
:1010500086F6013606F01F06012707FA06F6BAE7FC
:101060002026F6E792FAA2F242B1B2FA82F20132F7
:1010700002F01F0202EB42021205B6E72022F6E759
:1010800000F0FF0300007F400000088000010050D6
:1010900000070050000021C31000C090000052C79C
:1010A000000084CBCDB9900E0130800600F0F840EE
:1010B000FDB9970E013707F01F070126BE403043E8
:1010C0002DBB920E013202F01F0202EB42021E3AC9
:1010D000120542F00072104388E792FAA2F030B194
:1010E000B0FA80F00130800600F0F840E0E7202000
:1010F000F8E792FAA2F646B1B6FA86F6013606F09D
:101100001F06012707FA06F6D9E72026F6E792FA26
:10111000A2F25AB1B2FA82F2013202F01F0202EBDD
:1011200042021E3A120542F00072D4E72022F3E791
:1011300000F5007093E6354891E610F4000F7FF457
:1011400099AEB1F1A04F04D0314A914201D00020B4
:10115000E7E5B1F1A04F19D02E4A914214D02E49A3
:1011600044F400048A6822F0E07214438C602B4A35
:10117000126892092A49A1FB02129209013202EB7C
:1011800042029200019206E02049E9E71F49E7E7A1
:10119000019A013A0192019A002AF9D10020C0E592
:1011A00010F0807F7FF46AAEB1F1A04F0ED0194AE3
:1011B000914209D0184944F080748A6822F0E072A4
:1011C00014438C600020ACE51049F4E70F49F2E7C6
:1011D00010F4800F13D10F4A914212D0B1F1A04FF9
:1011E00009D00D4844F48002816821F0E0710A437F
:1011F0008260002095E50548F4E7002091E5002095
:101200008FE500208DE502208EE500BF0003005031
:1012100000060050000100500007005000000020B0
:10122000632D3E0538B503689A6812F0010F40D16E
:1012300004469968204A114209D0C36D43F0100357
:10124000C365036E43F001030366012032E09A6830
:1012500022F0004222F03F0242F001029A60FFF7C2
:101260002BFB054623681A6812F0010F1FD19A68FC
:1012700012F0010F07D19A6822F0004222F03F02DB
:1012800042F001029A60FFF717FB431B022BE9D9DA
:1012900023681B6813F0010FE4D1E36D43F01003E2
:1012A000E365236E43F001032366012002E0002082
:1012B00000E0002038BD00BF3F00008038B5044684
:1012C0000368B3F1A04F60D0464A93425AD0464AD1
:1012D000956805F01F059B6813F0040F7DD194F805
:1012E0005830012B7BD0012384F858302046FFF77B
:1012F00099FF00286DD1E36D23F4706323F001039F
:1013000043F48073E3652368364A934242D002F582
:10131000806293423BD01A46934200D01DB9E26DE1
:1013200022F48012E265E26D12F4805F35D0226E05
:1013300022F0060222661C221A60002384F858302C
:101340002368284A93422ED002F58062934227D028
:101350001A4693422AD0092D05D840F22121E940AE
:1013600011F0010F22D1E36D43F48013E365D368DC
:1013700013F0007F32D0E36D23F4405343F48053E5
:10138000E3652BE002F50072A2E7184AA0E7A2F598
:101390008072C1E74FF0A042BEE700222266CAE792
:1013A000A2F58072D5E74FF0A042D2E7DA6812F0DA
:1013B000007F05D0E26D22F4405242F48052E26593
:1013C0009A6822F0004222F03F0242F004029A6042
:1013D00004E0002384F8583000E0022038BD0220E9
:1013E000FCE700BF00010050000700500003005060
:1013F00090F85820012A00F0D68010B49DB0034622
:10140000012280F858200022189219920068B0F149
:10141000A04F47D0654A904247D000220192019ADE
:10142000002A46D0926812F0040200D0012284689B
:1014300014F0040F40F0A780002A40F0A480B0F11F
:10144000A04F42D05A4A90423CD05A4A08680028DD
:101450005CD0906820F460404C6893F838C044EA4F
:101460004C34204390601868B0F1A04F2FD0504CFE
:10147000A0422CD04D48846814F0010400D001240F
:101480004D48806810F0010000D0012020434B4CF3
:10149000A46814F0010400D0012420430CBF0120F3
:1014A000002025E0424A0192B9E702F580720192DC
:1014B000B5E7DA6D42F02002DA65002283F85820A1
:1014C000012068E002F50072C0E73D4ABEE74FF038
:1014D000A040846814F0010400D0012434488068DE
:1014E00010F0010000D0012020430CBF012000209B
:1014F000002854D0906820F4716020F00F000C6830
:101500008968214308439060002041E0916821F4FC
:10151000604191601968B1F1A04F1AD0244881420E
:1015200017D02249886810F0010000D0012022491C
:10153000896811F0010100D0012101431F48806832
:1015400010F0010000D0012001430CBF0121002157
:1015500010E04FF0A041886810F0010000D0012099
:101560001349896811F0010100D0012101430CBF2A
:1015700001210021A9B1916821F4716121F00F01CD
:101580009160002004E0DA6D42F02002DA6501206B
:10159000002283F858201DB05DF8044B70470020EE
:1015A000F6E70020F4E70220704700BF0004005077
:1015B00000010050000700500005005000060050D8
:1015C00000030050074AD36823F4E0631B041B0C9C
:1015D000000200F4E060034343F0BF6343F40033D0
:1015E000D360704700ED00E000B5194BDB68C3F332
:1015F0000223C3F1070CBCF1040F28BF4FF0040C09
:1016000003F1040EBEF1060F18D9033B4FF0FF3E65
:101610000EFA0CFC21EA0C0199400EFA03FE22EAB4
:101620000E020A4300280BDB1201D2B200F1604027
:1016300000F5614080F800235DF804FB0023E5E736
:1016400000F00F001201D2B2024B1A54F4E700BFAF
:1016500000ED00E014ED00E0002807DB00F01F02C1
:10166000400901239340024A42F82030704700BFEE
:1016700000E100E00138B0F1807F0BD24FF0E023B1
:101680005861054AF02182F8231000209861072252
:101690001A6170470120704700ED00E0F0B583B09B
:1016A000002362E085685E000324B44025EA040557
:1016B000CC68B4402C438460456825EA0C054C682E
:1016C000C4F300149C402C4344605FE0DD080835FF
:1016D00050F8254003F0070C4FEA8C0C4FF00F0E2A
:1016E0000EFA0CFE24EA0E0E0C6904FA0CF444EA1D
:1016F0000E0440F8254060E0052400E0002404FAD0
:101700000EF42C430CF1020C554D45F82C40554C71
:10171000A568D44325EA02064F6817F4801F01D05C
:1017200042EA05064F4DAE60ED6804EA05064F68D3
:1017300017F4001F01D042EA05064A4DEE606D68BD
:1017400004EA05064F6817F4003F01D042EA050697
:10175000444D6E602D682C404E6816F4803F01D0D9
:1017600042EA05043F4A146001330A6832FA03F47E
:1017700074D04FF0010C0CFA03FC1CEA0202F3D007
:101780004C6804F00304013C012C8BD94C6804F034
:101790000304032C0CD0C4685D004FF0030C0CFA5A
:1017A00005FC24EA0C0C8C68AC4044EA0C04C460D0
:1017B0004C6804F00304022C88D004684FEA430EFE
:1017C0004FF0030C0CFA0EFC24EA0C0C4C6804F0ED
:1017D000030404FA0EF444EA0C0404604C6814F4A4
:1017E000403FC1D0204C256E45F001052566246E92
:1017F00004F001040194019C4FEA930C0CF10205E2
:10180000174C54F8255003F0030E4FEA8E0E0F24A8
:1018100004FA0EF425EA0405B0F1904F3FF46EAFE0
:10182000124CA04212D004F58064A04210D004F5FE
:101830008064A0420ED004F58064A0420CD004F570
:101840008064A0423FF458AF062458E7012456E7CD
:10185000022454E7032452E7042450E703B0F0BD08
:101860000000014000040140001002400004004854
:101870000AB18161704781627047704708B5054BB6
:101880005B69034200D108BD024B5861FFF7F5FFC9
:10189000F9E700BF00040140002836D13E4B1B6829
:1018A00003F4C063B3F5806F08D03B4AD2F88030B0
:1018B00023F48073C2F8803000207047364AD2F893
:1018C000803023F48073C2F88030136823F4C0633F
:1018D00043F400731360314B1B68322202FB03F3A5
:1018E0002F4AA2FB03239B0C013300E0013B2A4A51
:1018F000526912F4806F01D0002BF7D1264B5B693F
:1019000013F4806F44D100207047B0F5007F08D0F9
:10191000214A136823F4C06343F4806313600020FA
:1019200070471D4B1B6803F4C063B3F5806F08D08C
:10193000194AD2F8803043F48073C2F88030002016
:101940007047154AD2F8803043F48073C2F8803073
:10195000136823F4C06343F4007313600F4B1B68D8
:10196000322202FB03F30E4AA2FB03239B0C01333A
:1019700000E0013B084A526912F4806F01D0002B4D
:10198000F7D1054B5B6913F4806F03D100207047DA
:1019900003207047032070470070004000000020C3
:1019A00083DE1B43024A936843F48043936070478D
:1019B00000700040124BDA6802F00302DB68C3F3E8
:1019C00003130133032A11D00E48B0FBF3F00C4B84
:1019D000DB68C3F3062303FB00F0094BDB68C3F3AA
:1019E000416301335B00B0FBF3F070470648B0FB86
:1019F000F3F0034BDB68C3F3062303FB00F0ECE7D3
:101A0000001002400024F40000366E01002800F0AF
:101A1000548270B582B00446036813F0010F37D0CA
:101A2000A44A936803F00C03D26802F003020C2B63
:101A300023D0082B23D06368B3F5803F4ED0B3F595
:101A4000A02F51D09B4B1A6822F480321A601A687A
:101A500022F480221A606368002B52D0FEF72CFF1C
:101A60000546944B1B6813F4003F11D1FEF724FF89
:101A7000401B6428F5D9032028E2032AD9D18D4BD5
:101A80001B6813F4003F03D06368002B00F017823B
:101A9000236813F0020F5DD0864A936803F00C03AD
:101AA000D26802F003020C2B3AD0042B3AD0E36840
:101AB000002B75D07F4A136843F480731360FEF7E0
:101AC000FBFE05467B4B1B6813F4806F5FD1FEF76E
:101AD000F3FE401B0228F5D90320F7E1754A13688D
:101AE00043F480331360B6E703F18043A3F53C333E
:101AF0001A6842F480221A601A6842F480321A602E
:101B0000A9E7FEF7D9FE05466A4B1B6813F4003FB0
:101B1000BED0FEF7D1FE401B6428F5D90320D5E1E5
:101B2000022AC2D1634B1B6813F4806F03D0E368B1
:101B3000002B00F0C6815F4A536823F0FE43216901
:101B400043EA016353605C4B1868FEF771FE00289E
:101B500040F0B981236813F0080F4CD063699BB340
:101B6000544AD2F8943043F00103C2F89430FEF79F
:101B7000A3FE05464F4BD3F8943013F0020F3AD131
:101B8000FEF79AFE401B0228F4D903209EE1494A41
:101B9000536823F0FE43216943EA01635360D9E7A8
:101BA000444A136823F480731360FEF785FE0546EC
:101BB000404B1B6813F4806FCCD0FEF77DFE401BBA
:101BC0000228F5D9032081E13A4AD2F8943023F073
:101BD0000103C2F89430FEF76FFE0546354BD3F88B
:101BE000943013F0020F06D0FEF766FE401B022869
:101BF000F4D903206AE1236813F0040F00F0818018
:101C00002C4B9B6D13F0805F36D12A4B9A6D42F0BE
:101C100080529A659B6D03F080530193019B0125CF
:101C2000264B1B6813F4807F28D0A368012B39D082
:101C3000052B45D01F4BD3F8902022F00102C3F8AA
:101C40009020D3F8902022F00402C3F89020A368DB
:101C5000002B43D0FEF730FE0646164BD3F89030EB
:101C600013F0020F4CD1FEF727FE801B41F28833A0
:101C70009842F2D9032029E10025D1E70F4A1368E1
:101C800043F480731360FEF717FE06460B4B1B6888
:101C900013F4807FC9D1FEF70FFE801B0228F5D90F
:101CA000032013E1034AD2F8903043F00103C2F855
:101CB0009030CCE700100240080000200070004087
:101CC0008A4BD3F8902042F00402C3F89020D3F856
:101CD000902042F00102C3F89020B8E7FEF7ECFD37
:101CE0000646824BD3F8903013F0020F08D0FEF76F
:101CF000E3FD801B41F288339842F2D90320E5E0EE
:101D0000E5B9236813F0200F35D0A369E3B1774A12
:101D1000D2F8983043F00103C2F89830FEF7CCFDBA
:101D20000546724BD3F8983013F0020F23D1FEF71B
:101D3000C3FD401B0228F4D90320C7E06B4A936D12
:101D400023F080539365DCE7684AD2F8983023F09B
:101D50000103C2F89830FEF7AFFD0546634BD3F898
:101D6000983013F0020F06D0FEF7A6FD401B0228A4
:101D7000F4D90320AAE0E369002B00F0A6805B4AB7
:101D8000926802F00C020C2A69D0022B1DD0574B2E
:101D90001A6822F080721A60DA6822F00302DA60B0
:101DA000DA6822F0887222F48032DA60FEF784FD6D
:101DB00004464E4B1B6813F0007F4ED0FEF77CFDAF
:101DC000001B0228F5D9032080E0484A136823F05D
:101DD00080731360FEF770FD0546444B1B6813F0DB
:101DE000007F06D0FEF768FD401B0228F5D90320CE
:101DF0006CE03E4AD3683E491940236A606A013864
:101E000043EA0013A06A43EA0023206B400801382C
:101E100043EA4053606B4008013843EA4063E06A9C
:101E200043EAC0631943D160136843F080731360C1
:101E3000D36843F08073D360FEF73EFD04462B4B1E
:101E40001B6813F0007F06D1FEF736FD001B022849
:101E5000F5D903203AE0002038E0002036E0012BDD
:101E600036D0224BDB6803F00301226A914231D164
:101E700003F0F002616A0139B2EB011F2CD103F4C7
:101E8000FE42A16AB2EB012F28D103F07842E16A49
:101E9000B2EBC16F24D103F4C001226B5208013AA6
:101EA000B1EB425F1ED103F0C063626B5208013A8E
:101EB000B3EB426F18D1002008E0012070470120E9
:101EC00004E0012002E0012000E0002002B070BD2B
:101ED0000120FBE70120F9E70120F7E70120F5E702
:101EE0000120F3E70120F1E70120EFE700100240B5
:101EF0000C809F011E4B9B6803F00C03042B33D016
:101F00001B4B9B6803F00C03082B2FD0184B9B68CE
:101F100003F00C030C2B01D000207047144BDA683F
:101F200002F00302DB68C3F303130133032A11D069
:101F30001048B0FBF3F00E4BDB68C3F3062303FB42
:101F400000F00B4BDB68C3F3416301335B00B0FB74
:101F5000F3F070470848B0FBF3F0054BDB68C3F3C0
:101F6000062303FB00F0ECE7024870470248704785
:101F7000001002400024F40000366E01002800F03A
:101F8000E680F8B50C460546744B1B6803F00F035A
:101F90008B420BD2714A136823F00F030B4313607B
:101FA000136803F00F038B4240F0D3802E6816F0C5
:101FB00001065FD06B68032B2FD0022B4DD0684BEE
:101FC0001B6813F4806F00F0C680FFF793FF654B2A
:101FD00098424DD9624A936823F0F00343F080039E
:101FE000936080265E4A936823F0030369680B437D
:101FF0009360FEF761FC0746594B9B6803F00C03A6
:102000006A68B3EB820F35D0FEF756FCC01B41F275
:1020100088339842F0D9032078E0514B1B6813F0C5
:10202000007F01D1012071E0FFF7C4FC4D4B9842C5
:102030001AD94B4B9B6813F0F00F05D02E6816F0A1
:102040000206CFD0AB688BB9454A936823F0F00302
:1020500043F0800393608026C4E7414B1B6813F470
:10206000003FB2D1012051E00026BBE70026B9E7CE
:102070000026B7E72B6813F0020F48D013F0040FC7
:1020800004D0374A936843F4E06393602B6813F0FD
:10209000080F06D0324A936823F47C5343F4E0637C
:1020A00093602F4A936823F0F003A9680B43936071
:1020B0002A4B1B6803F00F03A34230D82B6813F0A0
:1020C000040F06D0264A936823F4E063E9680B43C3
:1020D00093602B6813F0080F07D0214A936823F40C
:1020E0006053296943EAC1039360FFF703FF1C4B68
:1020F0009B68C3F303131C4AD35C03F01F03D8404F
:102100001A4B18601A4B1868FEF792FBF8BD802E28
:10211000CED1134A936823F0F0039360C8E70F4AC7
:10212000136823F00F0323431360FEF7C5FB064635
:102130000A4B1B6803F00F03A342BFD0FEF7BCFBA2
:10214000801B41F288339842F2D90320DEE7012058
:1021500070470120DAE70120D8E700BF00200240E5
:102160000010024000B4C404D03D0008000000206C
:1021700008000020014B1868704700BF00000020D5
:1021800008B5FFF7F7FF054B9B68C3F30223044A2A
:10219000D35C03F01F03D84008BD00BF001002400D
:1021A000E03D000808B5FFF7E5FF054B9B68C3F36A
:1021B000C223044AD35C03F01F03D84008BD00BF0C
:1021C00000100240E03D0008F0B583B0044603680B
:1021D00013F4002F6ED0354B9B6D13F0805F1ED132
:1021E000324B9A6D42F080529A659B6D03F080539A
:1021F0000193019B01262E4A136843F480731360F8
:10220000FEF75AFB05462A4B1B6813F4807F08D162
:10221000FEF752FB401B0228F5D9032502E00026F9
:10222000E9E7002545BB214BD3F8903013F4407308
:1022300015D0226D9A4212D01C4AD2F8903023F465
:102240004073D2F8901041F48031C2F89010D2F867
:10225000901021F48031C2F89010C2F8903013F041
:10226000010F10D145B9114AD2F8903023F44073D0
:10227000216D0B43C2F89030EEB10C4A936D23F000
:102280008053936517E0FEF717FB0746074BD3F81B
:10229000903013F0020FE5D1FEF70EFBC01B41F2A8
:1022A00088339842F2D90325DCE700BF00100240D2
:1022B000007000400025236813F0010F08D09F4AEA
:1022C000D2F8883023F0030361680B43C2F88830EA
:1022D000236813F0020F08D0984AD2F8883023F010
:1022E0000C03A1680B43C2F88830236813F0040F75
:1022F00008D0924AD2F8883023F03003E1680B43CB
:10230000C2F88830236813F0080F08D08B4AD2F83F
:10231000883023F0C00321690B43C2F8883023685A
:1023200013F0100F08D0854AD2F8883023F4407398
:1023300061690B43C2F88830236813F0200F08D07E
:102340007E4AD2F8883023F44063A1690B43C2F877
:102350008830236813F0400F08D0784AD2F88830CC
:1023600023F44053E1690B43C2F88830236813F02B
:10237000800F08D0714AD2F8883023F44043216A94
:102380000B43C2F88830236813F4807F08D06B4A6F
:10239000D2F8883023F44033616A0B43C2F88830A6
:1023A000236813F4003F08D0644AD2F89C3023F02D
:1023B0000303A16A0B43C2F89C30236813F4007F27
:1023C00008D05E4AD2F8883023F44023E16A0B43F8
:1023D000C2F88830236813F4806F0CD0574AD2F8C3
:1023E000883023F44013216B0B43C2F88830236BF1
:1023F000B3F5801F79D0236813F4006F0CD04F4AD7
:10240000D2F8883023F44003616B0B43C2F8883064
:10241000636BB3F5800F6DD0236813F4805F0CD02D
:10242000464AD2F8883023F04073A16B0B43C2F8C0
:102430008830A36BB3F1807F61D0236813F4005F11
:102440000CD03E4AD2F8883023F04063E16B0B4356
:10245000C2F88830E36BB3F1006F55D0236813F4F2
:10246000804F0CD0354AD2F8883023F04063216C7D
:102470000B43C2F88830236CB3F1006F49D0236856
:1024800013F4004F0CD02D4AD2F8883023F040537B
:10249000616C0B43C2F88830636CB3F1805F3DD050
:1024A000236813F4803F0CD0244AD2F8883023F0FC
:1024B0004043A16C0B43C2F88830A36CB3F1804F4A
:1024C00031D0236813F4802F0CD01C4AD2F89C30F2
:1024D00023F44013E16C0B43C2F89C30E36CB3F57A
:1024E000001F25D0284603B0F0BDD36843F4801305
:1024F000D36080E7D36843F48013D3608CE7D3685C
:1025000043F48013D36098E7D36843F48013D36017
:10251000A4E7D36843F48013D360B0E7D36843F4EF
:102520008033D360BCE7D36843F48033D360C8E71B
:10253000D36843F48013D360D4E700BF0010024097
:1025400090F83D30DBB2012B3AD1022380F83D30C8
:102550000268D36843F00103D36003681B4A9342C7
:1025600020D0B3F1804F1DD0A2F59432934219D000
:1025700002F58062934215D002F58062934211D039
:1025800002F5943293420DD002F54062934209D095
:1025900002F58052934205D01A6842F001021A6097
:1025A0000020704799680A4A0A40062A0AD0B2F504
:1025B000803F09D01A6842F001021A60002070477B
:1025C000012070470020704700207047002C014018
:1025D00007000100704770477047704710B5044608
:1025E00003681A6912F0020F12D0DA6812F0020FB3
:1025F0000ED06FF002021A610123037703689B6912
:1026000013F0030F00F09F80FFF7E5FF002323770F
:1026100023681A6912F0040F13D0DA6812F0040F5D
:102620000FD06FF004021A610223237723689B699D
:1026300013F4407F00F08D802046FFF7CCFF00238D
:10264000237723681A6912F0080F12D0DA6812F0A3
:10265000080F0ED06FF008021A6104232377236855
:10266000DB6913F0030F7BD02046FFF7B4FF002394
:10267000237723681A6912F0100F12D0DA6812F06B
:10268000100F0ED06FF010021A6108232377236811
:10269000DB6913F4407F6AD02046FFF79CFF0023DC
:1026A000237723681A6912F0010F03D0DA6812F059
:1026B000010F63D123681A6912F0800F03D0DA6822
:1026C00012F0800F61D123681A6912F4807F03D061
:1026D000DA6812F0800F5FD123681A6912F0400F98
:1026E00003D0DA6812F0400F5DD123681A6912F046
:1026F000200F03D0DA6812F0200F5BD123681A692B
:1027000012F4801F03D0DA6812F4801F59D12368B5
:102710001A6912F4001F03D0DA6812F4001F57D1AF
:1027200023681A6912F4800F03D0DA6812F4800F5C
:1027300055D123681A6912F4000F03D0DA6812F435
:10274000000F53D110BDFFF745FF2046FFF744FFB0
:102750005CE72046FFF73EFF2046FFF73DFF6EE7B0
:102760002046FFF737FF2046FFF736FF7FE720467A
:10277000FFF730FF2046FFF72FFF90E76FF00102D1
:102780001A612046FDF716FE94E76FF080021A6189
:10279000204600F0D4F896E76FF480721A61204664
:1027A00000F0CEF898E76FF040021A612046FFF77C
:1027B00014FF9AE76FF020021A61204600F0BEF87D
:1027C0009CE76FF480121A61204600F0BAF89EE789
:1027D0006FF400121A61204600F0B4F8A0E76FF41D
:1027E00080021A61204600F0AEF8A2E76FF4000202
:1027F0001A61204600F0A8F8A4E700000368364AF2
:10280000904216D0B0F1804F13D0A2F5943290428E
:102810000FD002F5806290420BD002F580629042A8
:1028200007D002F59432904203D002F5E052904274
:1028300003D123F070034A681343274A904222D001
:10284000B0F1804F1FD0A2F5943290421BD002F518
:102850008062904217D002F58062904213D002F558
:10286000943290420FD002F5406290420BD002F5B4
:102870008062904207D002F58062904203D002F558
:102880000062904203D123F44073CA68134323F0DB
:1028900080034A69134303608B68C3620B688362D9
:1028A0000D4B984213D003F5006398420FD003F507
:1028B000406398420BD003F58063984207D003F53C
:1028C0008063984203D003F50063984201D10B69FD
:1028D0000363012343617047002C014060B310B5CE
:1028E000044690F83D3013B3022384F83D3021466E
:1028F00051F8040BFFF782FF012384F8483084F875
:102900003E3084F83F3084F8403084F8413084F819
:10291000423084F8433084F8443084F8453084F8F9
:10292000463084F8473084F83D30002010BD80F8F0
:102930003C30FDF739FFD7E70120704770477047FB
:1029400070477047704770477047000070B5044685
:10295000016883680269134342691343C2691343E0
:102960000868964A02401A430A602268536823F4B2
:102970004053E1680B435360A1692268904B9A422F
:1029800001D0236A1943936823F06E4323F4306324
:102990000B4393602268D36A23F00F03616A0B43F1
:1029A000D3622368874A934210D0874A934221D04A
:1029B000864A934237D0864A93425CD0854A9342F6
:1029C0006BD07F4A93427DD010223AE002F5584204
:1029D000D2F8882002F00302032A09D8DFE802F0C7
:1029E0000204870601222CE004222AE0082228E0C3
:1029F000102226E002F5E632D2F8882002F00C021E
:102A00000C2A0ED8DFE802F0070D0D0D090D0D0D93
:102A1000750D0D0D0B00002213E0042211E00822B9
:102A20000FE010220DE002F5E432D2F8882002F027
:102A30003002202A5FD01AD8002A5ED0102A5ED138
:102A400004225F498B4276D0E069B0F5004F00F078
:102A5000C980082A00F23481DFE812F0F70019017A
:102A6000F50032011C013201320132011F01302A0E
:102A700047D10822E5E702F5E232D2F8882002F0D9
:102A8000C002802A3FD004D8FAB3402A3FD10422A2
:102A9000D7E7C02A3DD10822D3E702F5E032D2F8C9
:102AA000882002F44072B2F5007F34D005D8A2B37A
:102AB000B2F5807F33D10422C3E7B2F5407F30D135
:102AC0000822BEE702F5C832D2F8882002F440623C
:102AD000B2F5006F27D005D83AB3B2F5806F26D192
:102AE0000422AEE7B2F5406F23D10822A9E7022203
:102AF000A7E70222A5E70222A3E70022A1E710220E
:102B00009FE710229DE702229BE7002299E710220F
:102B100097E7102295E7022293E7002291E710221F
:102B20008FE710228DE702228BE7002289E710222F
:102B300087E7102285E7082A00F2B280DFE802F07A
:102B400008B03BB038B0B0B005004FF4004004E02E
:102B5000FFF716FB002800F0A580626A1E4B33F8D1
:102B60001220B0FBF2F3656805EB4501994200F2D3
:102B70009B80B3EB053F00F2998000263346314637
:102B8000FDF786FB090241EA106100026B08C018DC
:102B90002A46334641F10001FDF77AFBA0F5407269
:102BA0000E4B9A4200F284802368D860304665E07C
:102BB000FFF7A0F9CEE70A48CFE700BFF369FFCFE0
:102BC00000800040003801400044004000480040C0
:102BD000004C004000500040E83D0008FFFC0F00A2
:102BE0000024F400082A65D8DFE802F0072705640E
:102BF0002A6464640B00354803E0FFF7C1FA00283B
:102C00005AD0626A324B33F81230B0FBF3F062688C
:102C1000530803EB4003B3FBF2F3A3F110014FF6AB
:102C2000EF7291424AD89AB222F00F02C3F34203E4
:102C300013432268D360002020E0FFF7B3FADEE7F9
:102C4000FFF758F9DBE7214803E0FFF799FA00287E
:102C500038D0626A1E4B33F81230B0FBF3F0636871
:102C600000EB5300B0FBF3F0A0F110024FF6EF734E
:102C70009A4229D8236880B2D86000200123A4F8A2
:102C80006A30A4F8683000232367636770BDFFF7DC
:102C900089FADCE7FFF72EF9D9E74FF40040D8E7CF
:102CA0000120EBE70020E9E70120E7E70120E5E765
:102CB0000120E3E70120E1E70020DFE70120DDE775
:102CC0000120DBE70020D9E70120D7E70024F4004A
:102CD000E83D0008836A13F0010F06D002685368CC
:102CE00023F40033C16A0B435360836A13F0020F6D
:102CF00006D00268536823F48033016B0B435360A2
:102D0000836A13F0040F06D00268536823F480230B
:102D1000416B0B435360836A13F0080F06D00268BF
:102D2000536823F40043816B0B435360836A13F0B1
:102D3000100F06D00268936823F48053C16B0B43D5
:102D40009360836A13F0200F06D00268936823F41F
:102D50000053016C0B439360836A13F0400F0AD059
:102D60000268536823F48013416C0B435360436C37
:102D7000B3F5801F0BD0836A13F0800F06D0026872
:102D8000536823F40023C16C0B43536070470268FF
:102D9000536823F4C003816C0B435360EBE72DE9C8
:102DA000F84305460F4616469946DDF820802B6805
:102DB000DC6937EA04040CBF01240024B44257D173
:102DC000B8F1FF3FF3D0FDF777FDA0EB09004045D8
:102DD0002FD8B8F1000F2CD02B681A6812F0040F0E
:102DE000E5D0DA6912F4006FE1D04FF400621A62A4
:102DF0002A6852E8003F23F4D07342E800310029EA
:102E0000F6D12A6802F1080353E8003F23F00103DA
:102E1000083242E800310029F3D12023C5F884307C
:102E2000C5F88830C5F88C30002385F88030032041
:102E30001FE02A6852E8003F23F4D07342E80031D3
:102E40000029F6D12A6802F1080353E8003F23F075
:102E50000103083242E800310029F3D12023C5F8EC
:102E60008430C5F88830002385F88030032000E0E6
:102E70000020BDE8F8832DE9F04182B01E46D0F86D
:102E80008430202B58D104460D469046002957D057
:102E9000002A57D090F88030012B55D0012380F8BC
:102EA00080300023C0F88C302123C0F88430FDF737
:102EB00003FD0746A4F85480A4F85680A368B3F530
:102EC000805F05D04FF00008002384F8803014E0C4
:102ED000236913B14FF00008F6E7A8460025F3E791
:102EE00038F8023B2268C3F308039362B4F8562013
:102EF00092B2013A92B2A4F85620B4F856309BB27E
:102F000073B100963B46002280212046FFF747FF21
:102F1000E0B9002DE4D015F8012B23689A62E5E7AB
:102F200000963B46002240212046FFF738FF78B943
:102F30002023C4F8843000E0022002B0BDE8F08114
:102F40000120FAE70120F8E70220F6E70320F4E782
:102F50000320F2E730B583B004460023C0F88C307C
:102F6000FDF7AAFC05462268126812F0080F0FD17F
:102F700023681B6813F0040F18D12023C4F8843091
:102F8000C4F888300020E06684F8800003B030BDCB
:102F90006FF07E430093034600224FF40011204659
:102FA000FFF7FDFE0028E3D00320EFE76FF07E433C
:102FB00000932B4600224FF480012046FFF7EFFEDE
:102FC0000028DAD00320E1E778B310B50446D0F842
:102FD00084300BB32423C4F884302268136823F0B0
:102FE000010313602046FFF7B1FC012813D0A36A48
:102FF000BBB92268536823F49043536022689368F6
:1030000023F02A0393602268136843F001031360DE
:103010002046FFF79FFF10BD80F88030FDF782FB50
:10302000D8E72046FFF756FEE3E70120704700008F
:10303000436E2BB90123A0F86A30A0F868307047BE
:1030400030B403689A68C2F342629968490F094D27
:103050006B5CDB00084C615C93FBF1F3A0F86A3019
:10306000AB5CDB00A25C93FBF2F3A0F8683030BCF1
:10307000704700BF083E0008003E000890F880300E
:10308000012B18D0012380F880302423C0F884302D
:1030900003681A68196821F00101196022F00052D2
:1030A0000023436601680A602022C0F8842080F86B
:1030B0008030184670470220704738B590F880304D
:1030C000012B1DD00446012380F880302423C0F852
:1030D000843003681D681A6822F001021A600268D1
:1030E000936823F0604319439160FFF7A1FF2368C1
:1030F0001D602023C4F88430002084F8800038BD8F
:103100000220FCE738B590F88030012B1DD0044632
:10311000012380F880302423C0F8843003681D68C0
:103120001A6822F001021A600268936823F0606353
:1031300019439160FFF77CFF23681D602023C4F8CA
:103140008430002084F8800038BD0220FCE70000B5
:103150000D4885460D480E490E4A002302E0D4581A
:10316000C4500433C4188C42F9D30B4A0B4C0023CF
:1031700001E013600432A242FBD3FDF74FFB00F0E5
:1031800039F8FDF71FFAFEE70000022000000020DA
:103190005C000020543E00085C0000201C0300205E
:1031A000FEE700000EB400B59CB01DAB0290069087
:1031B0006FF00041094807910491094953F8042B25
:1031C00005910068019302A900F082F9029B002298
:1031D0001A701CB05DF804EB03B070475800002073
:1031E0000802FFFF02440346934200D1704703F8F0
:1031F000011BF9E770B50D4D0D4C641BA4100026A2
:10320000A64209D10B4D0C4C00F0D2FD641BA4105A
:103210000026A64205D170BD55F8043B98470136FB
:10322000EEE755F8043B98470136F2E74C3E0008BC
:103230004C3E00084C3E0008503E00087047704766
:1032400037B5002944D051F8043C0190002BA1F17E
:103250000404B8BFE41800F0D5F81E4A01981368BA
:1032600033B96360146003B0BDE8304000F0D0B8FB
:10327000A34208D9256861198B4201BF19685B68B0
:1032800049192160EDE71A465B680BB1A342FAD9F0
:1032900011685518A5420BD1246821445418A34243
:1032A0001160E0D11C685B6853600C441460DAE77D
:1032B00002D90C230360D6E7256861198B4204BF4D
:1032C00019685B68636004BF491921605460CAE7EC
:1032D00003B030BD1003002070B50E4E0C463168AF
:1032E000054611B900F09CFB30602146284600F0ED
:1032F00097FB431C0AD0C41C24F00304A04207D04F
:10330000211A284600F08CFB013001D14FF0FF3428
:10331000204670BD140300202DE9F041CD1C25F09E
:10332000030508350C2D38BF0C25002D074601DBA1
:10333000A94205D90C233B6000263046BDE8F08148
:103340002F4E00F05FF833681C4644BB29463846D0
:10335000FFF7C2FF431C04464FD134682646002EB7
:1033600042D1002C43D023683146384604EB030891
:1033700000F056FB80453AD123680335ED1A25F05D
:10338000030508350C2D38BF0C2529463846FFF7B4
:10339000A3FF01302BD023682B4423600EE022686A
:1033A000521B1ED40B2A16D96119A342256018BFDF
:1033B0005960636808BF316062514B60384604F160
:1033C0000B0600F025F826F00706231DF21AB4D0EC
:1033D0009B1BA350B1E76268A3420CBF32605A60E6
:1033E000ECE723466468B0E734467668B7E70C2319
:1033F0003B60384600F00CF89FE72560DEE700BF31
:10340000100300200148FFF719BF00BF0C03002084
:103410000148FFF714BF00BF0C0300202DE9F0475F
:103420008E681F46BE420B6882460C4690462CD8DA
:103430008A8912F4906F26D06569096905EB450504
:10344000A3EB010905EBD5757B1C4B446D109D4228
:1034500038BF1D46530527D52946FFF75DFF0646B1
:1034600060B321694A4600F0EBFAA38923F4906324
:1034700043F08003A381266165614E44A5EB0905F5
:103480002660A5603E46BE4200D93E4620683246D0
:10349000414600F0ABFAA3689B1BA360236833444A
:1034A00023600020BDE8F0872A4600F0D7FA0646E0
:1034B0000028E0D121695046FFF7C2FE0C23CAF86C
:1034C0000030A38943F04003A3814FF0FF30E9E7C8
:1034D0002DE9F04F98468B891B069DB007460D4697
:1034E00014460ED50B6963B94021FFF715FF28601C
:1034F000286120B90C233B604FF0FF30D0E040231F
:103500006B610023099320238DF82930CDF80C80BE
:103510003023DFF8A4818DF82A304FF001092346CB
:103520009A4613F8012B0AB1252AF9D1BAEB040BFC
:103530000BD05B46224629463846FFF76FFF013025
:1035400000F0A980099A5A4409929AF80030002B99
:1035500000F0A18000234FF0FF32CDE905230AF1EE
:10356000010A049307938DF853301A9354460522A9
:1035700014F8011B5048FCF73BFE049AD8B9D0065A
:1035800044BF20238DF85330110744BF2B238DF8FF
:1035900053309AF800302A2B15D0079A5446002051
:1035A0004FF00A0C214611F8013B303B092B4DD955
:1035B000B0B1079214E0A0EB080309FA03F3134338
:1035C0000493A246D2E7039B191D1B680391002BAD
:1035D000BBBF5B4242F0020207930793B8BF04925D
:1035E00023782E2B0CD163782A2B34D1039B1A1D00
:1035F0001B680392002BB8BF4FF0FF3302340593D2
:10360000DFF8C4A0217803225046FCF7F1FD38B161
:10361000049BA0EB0A004022824013430134049330
:1036200014F8011B25488DF828100622FCF7E0FD50
:10363000002838D0224B1BBB039B073323F0070322
:1036400008330393099B3344099368E70CFB023268
:103650000C460120A6E700230134059319464FF0DC
:103660000A0C204610F8012B303A092A03D9002B06
:10367000C6D00591C4E70CFB012104460123F0E705
:1036800003AB00932A460F4B04A93846AFF30080E2
:10369000421C0646D6D1AB895B063FF52DAF099893
:1036A0001DB0BDE8F08F03AB00932A46054B04A97B
:1036B000384600F079F8EBE7103E00081A3E0008A3
:1036C000000000001D340008163E00082DE9F047F8
:1036D000164699468A680B69DDF820809342B8BF88
:1036E0001346336091F8432007460C460AB1013374
:1036F00033602368990642BF33680233336025681C
:1037000015F0060506D104F1190AE36832689B1A20
:10371000AB4226DC94F84320131E226818BF012315
:1037200092062BD404F1430249463846C047013083
:103730001ED02368226903F00603042B02BFE5684C
:103740003368ED1AA3680CBF25EAE575002593429E
:10375000C4BF9B1AED1800261A34B5421AD10020B6
:1037600008E00123524649463846C047013003D19C
:103770004FF0FF30BDE8F0870135C6E7E1185A1C6D
:10378000302081F84300224494F8451082F8431019
:103790000233C7E70123224649463846C047013075
:1037A000E6D00136D9E700002DE9FF470F7E0C9DDA
:1037B000782F914680460C469A4601F1430207D87D
:1037C000622F0AD8002F00F0D480582F00F0C0805C
:1037D00004F1420584F842703AE0A7F16303152B27
:1037E000F6D801A151F823F04138000855380008F7
:1037F000D1370008D1370008D1370008D137000889
:1038000055380008D1370008D1370008D1370008F3
:10381000D1370008593900088138000813390008E9
:10382000D1370008D13700087B390008D1370008AC
:1038300081380008D1370008D13700081B3900084B
:103840002B681A1D1B682A6004F1420584F8423077
:1038500001239FE020682B68070603F1040129601B
:1038600001D51E6803E04606FBD5B3F90060002EC3
:1038700003DA2D23764284F843305A480A2312E0B3
:103880002B682068191D2960050601D51E6802E015
:103890004106FBD51E8853486F2F0CBF08230A230F
:1038A000002184F843106568A560002DA2BF21683F
:1038B00021F0040121600EB9002D4BD01546B6FB56
:1038C000F3F103FB1167C75D05F8017D3746BB4285
:1038D0000E46F4D9082B0BD12368DE0708D52369DF
:1038E00061689942DEBF302305F8013C05F1FF35E0
:1038F000521B2261CDF800A04B4603AA2146404648
:10390000FFF7E4FE01304AD14FF0FF3004B0BDE8CC
:10391000F087236843F0200323603348782784F836
:103920004570236829681F0651F8046B02D45F06AE
:1039300048BFB6B2DF0748BF43F02003296048BF45
:1039400023601EB9236823F0200323601023A7E718
:103950002448E4E71546BDE72B6826686169181D11
:10396000286035061B6801D5196002E07006FBD59A
:103970001980002323611546BCE72B681A1D2A60B5
:103980001D68626800212846FCF732FC08B1401B24
:10399000606063682361002384F84330AAE72369E9
:1039A0002A4649464046D0470130ADD023689B07A0
:1039B00013D4E068039B9842B8BF1846A6E70123DA
:1039C000324649464046D04701309DD00135E36834
:1039D00003995B1AAB42F2DCEBE7002504F1190610
:1039E000F5E700BF213E0008323E0008884210B5CE
:1039F00001EB020402D98442234607D8431EA142A8
:103A000008D011F8012B03F8012FF8E70244014612
:103A10008A4200D110BD13F8014D02F8014DF7E7BD
:103A200038B5064D0023044608462B6000F04EF8DA
:103A3000431C02D12B6803B1236038BD080300206A
:103A40000A44914200F1FF3300D1704710B511F8DC
:103A5000014B03F8014F9142F9D110BD2DE9F0411E
:103A6000804614460E4621B9BDE8F0411146FFF7E5
:103A700053BC2AB9FFF7E4FB25462846BDE8F08190
:103A800000F01BF88442074602D8B4EB500F12D85E
:103A900021464046FFF740FC05460028EDD0BC42D9
:103AA0002246314628BF3A46FFF7CAFF3146404614
:103AB000FFF7C6FBE1E73546DFE751F8043C181F86
:103AC000002BBCBF0B58C01870470000044A0549C2
:103AD0001368002B08BF0B46184410601846704747
:103AE00018030020200300202DE9F047089E0D4612
:103AF00004460F46002B4AD18A42944665D9B2FA51
:103B000082F343B102FA03FCC3F120029F4020FA82
:103B100002F217439C404FEA1C4E1FFA8CF5B7FB8C
:103B2000FEF1220C0EFB117742EA074201FB05F081
:103B300090420AD91CEB020201F1FF3780F01C8190
:103B4000904240F2198102396244121AA4B2B2FBC7
:103B5000FEF00EFB102244EA024400FB05F5A542EC
:103B60000AD91CEB040400F1FF3280F00781A54262
:103B700040F204816444023840EA0140641B0021A1
:103B80001EB1DC400023C6E90043BDE8F0878B424C
:103B900008D9002E00F0ED800021C6E90005084696
:103BA000BDE8F087B3FA83F1002949D1AB4202D3D3
:103BB000824200F2F880841A65EB03020120174666
:103BC000002EE2D0C6E90047DFE702B9FFDEB2FA15
:103BD00082F3002B40F090808A1A4FEA1C471FFAAC
:103BE0008CFE0121B2FBF7F507FB1520220C42EAFF
:103BF00000420EFB05F0904208D91CEB020205F1D1
:103C0000FF3802D2904200F2CB804546121AA4B28D
:103C1000B2FBF7F007FB102244EA02440EFB00FE61
:103C2000A64508D91CEB040400F1FF3202D2A645D8
:103C300000F2BB801046A4EB0E0440EA05409FE76B
:103C4000C1F120078B4022FA07FC4CEA030C05FA6D
:103C500001F420FA07F3FD404FEA1C492343B5FB6A
:103C6000F9F81FFA8CFE09FB18551C0C44EA0544B0
:103C700008FB0EF5A54202FA01F200FA01F00BD999
:103C80001CEB040408F1FF3A80F08880A54240F262
:103C90008580A8F102086444641B9DB2B4FBF9F36B
:103CA00009FB134445EA044403FB0EFEA64508D96C
:103CB0001CEB040403F1FF356CD2A6456AD9023B24
:103CC000644443EA0843A3FB0295A4EB0E04AC4210
:103CD000C846AE4656D353D056B1B0EB080264EB9B
:103CE0000E0404FA07F7CA40CC401743C6E9007433
:103CF00018460021BDE8F087C3F1200102FA03FC59
:103D000020FA01F225FA01F19D402A434FEA1C47AF
:103D10001FFA8CFEB1FBF7F007FB1015110C41EAFE
:103D2000054100FB0EF58D4204FA03F408D91CEBA3
:103D3000010100F1FF382FD28D422DD902386144A4
:103D4000491B92B2B1FBF7F507FB151142EA01429C
:103D500005FB0EF1914208D91CEB020205F1FF3878
:103D600016D2914214D9023D6244521A45EA0041EA
:103D700038E73146304608E73946E6E61046FBE6C6
:103D80004845A9D2B9EB020865EB0C0E013BA3E74D
:103D90004546EAE72B4694E74046D1E7D0467BE725
:103DA000023D624432E708460AE76444023842E7CB
:103DB000F8B500BFF8BC08BC9E467047F8B500BF18
:083DC000F8BC08BC9E467047E8
:103DC8002568750D0A0000000000000000000000D2
:103DD80001020304060708090000000001020304A9
:103DE800010002000400060008000A000C00100090
:103DF80020004000800000010804020408010101BD
:103E08000101010307010000232D302B2000686CFD
:103E18004C006566674546470030313233343536E5
:103E2800373839414243444546003031323334351E
:0C3E38003637383961626364656600004B
:083E4400A4FCFF7F0100000057
:043E4C00E90200087F
:043E5000C50200089F
:103E54000024F40001000000100000000000000035
:103E6400D001002038020020A00200200000000041
:103E7400000000000000000000000000000000003E
:103E8400000000000000000000000000000000002E
:103E9400000000000000000000000000000000001E
:0C3EA40000000000000000000C000020E6
:04000005080031516D
:00000001FF
