:020000040800F2
:1000000000000220714100089D1500089F1500089E
:10001000A1150008A3150008A515000800000000A0
:10002000000000000000000000000000A71500080C
:10003000A915000800000000AB150008AD15000868
:10004000C1410008C1410008C1410008C141000888
:10005000C1410008C1410008C1410008C141000878
:10006000C1410008C1410008C1410008C141000868
:10007000C1410008C1410008C1410008C141000858
:10008000C1410008C1410008C1410008C141000848
:10009000C1410008C1410008C1410008C141000838
:1000A000C1410008C1410008C1410008C141000828
:1000B000C1410008C1410008C1410008C141000818
:1000C000C1410008C1410008C1410008C141000808
:1000D000C1410008C1410008C1410008C1410008F8
:1000E000B5150008C1410008C1410008C141000820
:1000F000C1410008C1410008C1410008C1410008D8
:10010000C1410008C1410008C1410008C1410008C7
:10011000C1410008C1410008C1150008C1410008E3
:10012000C1410008C1410008C1410008C1410008A7
:10013000C1410008C1410008C1410008C141000897
:10014000C1410008C1410008C1410008C141000887
:10015000C1410008C1410008C1410008C141000877
:10016000C1410008C1410008C1410008C141000867
:10017000C1410008C1410008C1410008C141000857
:10018000C1410008C1410008C1410008C141000847
:10019000C141000800000000C1410008C141000841
:1001A000C1410008C1410008C1410008C141000827
:1001B000C1410008C1410008C1410008C141000817
:1001C000C1410008C1410008C1410008C141000807
:0801D000C1410008C141000813
:1001E00001F0FF01102A2BDB10F0070F08D010F8E8
:1001F000013B013A8B422DD010F0070F42B3F6D1EC
:10020000F0B441EA012141EA014122F007047FF004
:1002100000070023F0E80256083C85EA010586EA5B
:10022000010685FA47F5A3FA87F586FA47F6A5FA97
:1002300087F68EB9EED1F0BC01F0FF0102F00702A3
:1002400032B110F8013B013A83EA010313B1F8D14E
:100250000020704701387047002D06BF354603382F
:10026000073815F0010F07D1013015F4807F02BF68
:10027000013015F4C03F0130F0BC0138704700BFB9
:10028000034613F8012B002AFBD1181A01387047D6
:1002900081F0004102E000BF83F0004330B54FEA37
:1002A00041044FEA430594EA050F08BF90EA020FA4
:1002B0001FBF54EA000C55EA020C7FEA645C7FEA37
:1002C000655C00F0E2804FEA5454D4EB5555B8BF5A
:1002D0006D420CDD2C4480EA020281EA030382EACB
:1002E000000083EA010180EA020281EA0303362D5D
:1002F00088BF30BD11F0004F4FEA01314FF4801C30
:100300004CEA113102D0404261EB410113F0004F41
:100310004FEA03334CEA133302D0524263EB4303F8
:1003200094EA050F00F0A780A4F10104D5F1200E96
:100330000DDB02FA0EFC22FA05F2801841F10001F1
:1003400003FA0EF2801843FA05F359410EE0A5F1C5
:1003500020050EF1200E012A03FA0EFC28BF4CF0F6
:10036000020C43FA05F3C01851EBE37101F00045AC
:1003700007D54FF0000EDCF1000C7EEB00006EEBB9
:100380000101B1F5801F1BD3B1F5001F0CD3490843
:100390005FEA30004FEA3C0C04F101044FEA44529A
:1003A00012F5800F80F09A80BCF1004F08BF5FEA21
:1003B000500C50F1000041EB045141EA050130BD01
:1003C0005FEA4C0C404141EB0101013C28BFB1F513
:1003D000801FE9D291F0000F04BF01460020B1FA5E
:1003E00081F308BF2033A3F10B03B3F120020CDA31
:1003F0000C3208DD02F1140CC2F10C0201FA0CF00F
:1004000021FA02F10CE002F11402D8BFC2F1200C73
:1004100001FA02F120FA0CFCDCBF41EA0C01904029
:10042000E41AA2BF01EB0451294330BD6FEA040472
:100430001F3C1CDA0C340EDC04F11404C4F120025D
:1004400020FA04F001FA02F340EA030021FA04F36F
:1004500045EA030130BDC4F10C04C4F1200220FAC6
:1004600002F001FA04F340EA0300294630BD21FA04
:1004700004F0294630BD94F0000F83F4801306BFCA
:1004800081F480110134013D4EE77FEA645C18BFBE
:100490007FEA655C29D094EA050F08BF90EA020F55
:1004A00005D054EA000C04BF1946104630BD91EA4D
:1004B000030F1EBF0021002030BD5FEA545C05D150
:1004C0004000494128BF41F0004130BD14F580048F
:1004D0003CBF01F5801130BD01F0004545F0FE4103
:1004E00041F470014FF0000030BD7FEA645C1ABF38
:1004F000194610467FEA655C1CBF0B46024650EA6F
:10050000013406BF52EA033591EA030F41F400219A
:1005100030BD00BF90F0000F04BF0021704730B520
:100520004FF4806404F132044FF000054FF00001F5
:1005300050E700BF90F0000F04BF0021704730B5B6
:100540004FF4806404F1320410F0004548BF40428B
:100550004FF000013EE700BF42004FEAE2014FEAE0
:1005600031014FEA02701FBF12F07F4393F07F4FBB
:1005700081F06051704732F07F4208BF704793F0BE
:100580007F4F04BF41F40021704730B54FF46074D1
:1005900001F0004521F000411CE700BF50EA0102D4
:1005A00008BF704730B54FF000050AE050EA01027D
:1005B00008BF704730B511F0004502D5404261EBED
:1005C00041014FF4806404F132045FEA915C3FF42E
:1005D000D8AE4FF003025FEADC0C18BF03325FEACB
:1005E000DC0C18BF033202EBDC02C2F1200300FA7C
:1005F00003FC20FA02F001FA03FE40EA0E0021FAA1
:1006000002F11444BDE600BF70B54FF0FF0C4CF48E
:10061000E06C1CEA11541DBF1CEA135594EA0C0F40
:1006200095EA0C0F00F0DEF82C4481EA030621EA7B
:100630004C5123EA4C5350EA013518BF52EA0335B6
:1006400041F4801143F4801338D0A0FB02CE4FF068
:100650000005E1FB02E506F00042E0FB03E54FF098
:100660000006E1FB03569CF0000F18BF4EF0010E90
:10067000A4F1FF04B6F5007F64F5407404D25FEA8C
:100680004E0E6D4146EB060642EAC62141EA55513F
:100690004FEAC52040EA5E504FEACE2EB4F1FD0C81
:1006A00088BFBCF5E06F1ED8BEF1004F08BF5FEAFF
:1006B000500E50F1000041EB045170BD06F00046B1
:1006C00046EA010140EA020081EA0301B4EB5C045E
:1006D000C2BFD4EB0C0541EA045170BD41F4801156
:1006E0004FF0000E013C00F3AB8014F1360FDEBF7B
:1006F000002001F0004170BDC4F10004203C35DA57
:100700000C341BDC04F11404C4F1200500FA05F3D9
:1007100020FA04F001FA05F240EA020001F000427A
:1007200021F0004110EBD37021FA04F642EB0601F0
:100730005EEA430E08BF20EAD37070BDC4F10C041A
:10074000C4F1200500FA04F320FA05F001FA04F2DE
:1007500040EA020001F0004110EBD37041F10001CA
:100760005EEA430E08BF20EAD37070BDC4F12005D5
:1007700000FA05F24EEA020E20FA04F301FA05F23D
:1007800043EA020321FA04F001F0004121FA04F2E5
:1007900020EA020000EBD3705EEA430E08BF20EAB5
:1007A000D37070BD94F0000F0FD101F000464000EF
:1007B00041EB010111F4801F08BF013CF7D041EA71
:1007C000060195F0000F18BF704703F00046520075
:1007D00043EB030313F4801F08BF013DF7D043EA46
:1007E0000603704794EA0C0F0CEA135518BF95EAFC
:1007F0000C0F0CD050EA410618BF52EA4306D1D183
:1008000081EA030101F000414FF0000070BD50EAA1
:10081000410606BF1046194652EA430619D094EA2B
:100820000C0F02D150EA013613D195EA0C0F05D115
:1008300052EA03361CBF104619460AD181EA030169
:1008400001F0004141F0FE4141F470014FF0000021
:1008500070BD41F0FE4141F4780170BD70B54FF0BC
:10086000FF0C4CF4E06C1CEA11541DBF1CEA13553C
:1008700094EA0C0F95EA0C0F00F0A7F8A4EB05041E
:1008800081EA030E52EA03354FEA013100F0888015
:100890004FEA03334FF0805545EA131343EA1263DE
:1008A0004FEA022245EA111545EA10654FEA002693
:1008B0000EF000419D4208BF964244F1FD0404F54C
:1008C000407402D25B084FEA3202B61A65EB0305A8
:1008D0005B084FEA32024FF480104FF4002CB6EB65
:1008E000020E75EB030E22BFB61A754640EA0C00E5
:1008F0005B084FEA3202B6EB020E75EB030E22BF25
:10090000B61A754640EA5C005B084FEA3202B6EB65
:10091000020E75EB030E22BFB61A754640EA9C0024
:100920005B084FEA3202B6EB020E75EB030E22BFF4
:10093000B61A754640EADC0055EA060E18D04FEAB2
:10094000051545EA16754FEA06164FEAC30343EA52
:1009500052734FEAC2025FEA1C1CC0D111F4801F1F
:100960000BD141EA00014FF000004FF0004CB6E718
:1009700011F4801F04BF01430020B4F1FD0C88BFB7
:10098000BCF5E06F3FF6AFAEB5EB030C04BFB6EBC2
:10099000020C5FEA500C50F1000041EB045170BDB5
:1009A0000EF0004E4EEA113114EB5C04C2BFD4EBE2
:1009B0000C0541EA045170BD41F480114FF0000E66
:1009C000013C90E645EA060E8DE60CEA135594EAE2
:1009D0000C0F08BF95EA0C0F3FF43BAF94EA0C0FE5
:1009E0000AD150EA01347FF434AF95EA0C0F7FF45A
:1009F00025AF104619462CE795EA0C0F06D152EAAE
:100A000003353FF4FDAE1046194622E750EA410691
:100A100018BF52EA43067FF4C5AE50EA41047FF4A2
:100A20000DAF52EA43057FF4EBAE12E74FF0FF3C07
:100A300006E000BF4FF0010C02E000BF4FF0010CD8
:100A40004DF804CD4FEA410C7FEA6C5C4FEA430C51
:100A500018BF7FEA6C5C1BD001B050EA410C0CBFA0
:100A600052EA430C91EA030F02BF90EA020F002002
:100A7000704710F1000F91EA030F58BF994208BF69
:100A800090422CBFD8176FEAE37040F00100704726
:100A90004FEA410C7FEA6C5C02D150EA013C07D17D
:100AA0004FEA430C7FEA6C5CD6D152EA033CD3D0C8
:100AB0005DF8040B704700BF8446104662468C46C2
:100AC0001946634600E000BF01B5FFF7B7FF0028F5
:100AD00048BF10F1000F01BD4DF808EDFFF7F4FF1E
:100AE0000CBF012000205DF808FB00BF4DF808EDA9
:100AF000FFF7EAFF34BF012000205DF808FB00BFCC
:100B00004DF808EDFFF7E0FF94BF012000205DF8ED
:100B100008FB00BF4DF808EDFFF7CEFF94BF0120A2
:100B200000205DF808FB00BF4DF808EDFFF7C4FF9B
:100B300034BF012000205DF808FB00BF4FEA410CE4
:100B40007FEA6C5C02D150EA013C0AD14FEA430CC7
:100B50007FEA6C5C02D152EA033C02D14FF0000004
:100B600070474FF0010070474FEA410212F5001242
:100B700015D211D56FF47873B3EB625212D94FEAE4
:100B8000C12343F0004343EA505311F0004F23FACE
:100B900002F018BF404270474FF00000704750EA23
:100BA000013005D111F0004008BF6FF000407047E0
:100BB0004FF00000704700BF4FEA4102B2F1E0433E
:100BC00024BFB3F5001CDCF1FE5C0DD901F0004C34
:100BD0004FEAC0024CEA5070B2F1004F40EB830084
:100BE00008BF20F00100704711F0804F21D113F1B0
:100BF0003872BCBF01F00040704741F480114FEAE9
:100C00005252C2F11802C2F1200C10FA0CF320FA71
:100C100002F018BF40F001004FEAC1234FEAD3238E
:100C200003FA0CFC40EA0C0023FA02F34FEA4303F8
:100C3000CCE77FEA625307D150EA01331EBF4FF081
:100C4000FE4040F44000704701F0004040F0FE409C
:100C500040F40000704700BF53B94AB9002908BFEB
:100C600000281CBF4FF0FF314FF0FF3000F00CB8F0
:100C7000ADF1080C6DE904CE06F054F9DDF804E09E
:100C8000DDE9022304B07047704700BF10B5054C82
:100C9000237833B9044B13B10448AFF30080012328
:100CA000237010BDD401002000000000EC7100088A
:100CB00008B5034B1BB103490348AFF3008008BDDF
:100CC00000000000D8010020EC71000870B58AB067
:100CD0000024059406940794089409942D4BDA6C2B
:100CE00042F00402DA64DA6C02F004020192019A22
:100CF000DA6C42F02002DA64DA6C02F0200202922E
:100D0000029ADA6C42F00102DA64DA6C02F0010253
:100D10000392039ADA6C42F00202DA64DB6C03F0AD
:100D200002030493049B224620214FF0904001F0DF
:100D300051FD194D22464FF4E051284601F04AFD7D
:100D40004FF4005305934FF488130693079405A9B5
:100D5000284601F055FC20230593012606960794AA
:100D6000089405A94FF0904001F04AFC4FF4E0537D
:100D7000059306960794089405A9284601F040FCBF
:100D800022462146282001F0E1FB282001F016FC34
:100D90000AB070BD001002400008004802681E4BF7
:100DA0009A4200D070471D4A13680133136013F054
:100DB000030F09D11A4A126832B91A4B01221A607C
:100DC000194B02221A707047184981FB03211944FC
:100DD000DA17C2EBA102C2EBC202934209D1104A58
:100DE000126832B9124B01221A600F4B02221A709C
:100DF00070470B4A1268012AD4D10E4981FB0321A6
:100E0000DA17C2EBA10202EB8202B3EB420FC9D1A7
:100E1000094B01221A60C5E700100040C003002002
:100E2000F0010020F8010020BC0300209324499227
:100E3000000200206766666604020020B0F5005FCD
:100E400000D0704708B520214FF0904001F0C7FC5A
:100E5000074A1368B3FA83F35B091360054A00215C
:100E600011601BB10322044B1A7008BD0122FAE77E
:100E7000F0010020C0030020BC03002072B6FEE792
:100E800008B51548154B03604FF4E1334360002368
:100E90008360C36003610C22426183610362436229
:100EA000836203F0A1F870B900210B4803F015F933
:100EB00058B90021084803F035F940B9064803F055
:100EC000EDF830B908BDFFF7D9FFFFF7D7FFFFF7FF
:100ED000D5FFFFF7D3FF00BFE002002000800040F5
:100EE00010B58CB0002409940A940B94202221465A
:100EF00001A803F0E0FE1E484FF0A04303604FF44A
:100F0000403343608460C4600461446104238361AE
:100F1000047744770123036280F82440C4620463A9
:100F200080F83840C46380F8404000F0A5FBC8B9A1
:100F30000023099309A90E4801F00CFAA0B90D4B42
:100F4000019306230293002303937F220492042239
:100F5000059206930DEB0201054800F091FD28B9BA
:100F60000CB010BDFFF78AFFFFF788FFFFF786FF81
:100F7000080200200200300400B585B00023019370
:100F8000029303930E480F4A026040F2E732426038
:100F9000836042F23312C260836102F059FC50B99F
:100FA00000230193039301A9054802F081FC20B9B5
:100FB00005B05DF804FBFFF761FFFFF75FFF00BFBF
:100FC000700300200010004000B589B020220021ED
:100FD000684603F070FE1A481A4B03604FF4403322
:100FE000436000238360C360036143610422826124
:100FF000037743770122026280F82430C3620363DF
:1010000080F83830C36380F8403000F035FB90B989
:101010000D4B009306230193002302937F2203923A
:101020000422049205936946054800F029FD20B981
:1010300009B05DF804FBFFF721FFFFF71FFF00BFBA
:1010400074020020000100500400600800B595B053
:101050003822002106A803F02EFE00200190029005
:1010600003900490059001F0D1FB022306934FF406
:101070008072099240220A920D930E9304220F92DD
:101080005522109211931293139306A801F078FC45
:1010900090B90F2301930323029300230393049336
:1010A0004FF4E063059304210DEB010001F020FFF4
:1010B00020B915B05DF804FBFFF7E0FEFFF7DEFE98
:1010C00030B5B7B0A24B00221A70A24C0DF10C0C37
:1010D00004F1300E654620686168A268E3680FC5B8
:1010E0001034AC467445F5D120686168A268ACE85C
:1010F0000700237B8CF80030272200210DF14900E6
:1011000003F0D9FD00F096FAFFF7A0FFFFF7DEFD30
:10111000FFF7B6FEFFF7E4FEFFF72EFFFFF754FFE1
:101120008D4802F0C7F972E08C4C204601F00CF8B3
:101130000121204600F0F4FB204600F09DFC80B227
:10114000FFF7F8F978A3D3E90023FFF75DFA78A356
:10115000D3E90023FFF782FB77A3D3E90023FFF74E
:101160009BF800227E4BFFF74FFA00227D4BFFF7E2
:1011700075FBFFF721FD0546204601F0C9F800F098
:1011800075FA794BA3FB003464092846FFF7E4F9AC
:10119000CDE900012246754929A803F029FD29A8B7
:1011A000FFF76EF80A2382B229A9714802F073FE94
:1011B000704B00221A6036E0654B04221A7001223F
:1011C0006D4B1A606D4C4FF40061204601F002FB3C
:1011D00000224FF48051204601F0FCFA11E0002477
:1011E000654B1C60664B1C60644D22464FF40061E9
:1011F000284601F0EFFA22464FF48051284601F0CC
:10120000E9FA604B00221A60514B01221A70504BD0
:101210001B78032B51D0042B5DD0022BF7D1554BFB
:101220001B68012B80D0574B1B68012BECD1564C0F
:10123000204600F089FF0121204600F071FB204686
:1012400000F01AFC80B2FFF775F937A3D3E9002349
:10125000FFF7DAF936A3D3E90023FFF7FFFAFFF728
:10126000ABFC0546204601F053F82846FFF774F919
:1012700004460D4632A3D3E90023FFF737FC0028CC
:101280009AD131A3D3E9002320462946FFF74CFC2D
:101290000028A4D02E4B04221A700122384B1A6069
:1012A000364C4FF48051204601F094FA00224FF45E
:1012B0000061204601F08EFAA3E7344B1B68012B36
:1012C000A5D10A23642203A9294802F0E4FD2F4B8B
:1012D00000221A609BE7284B1B68ABB10DF1700C24
:1012E0002B4C0FCCACE80F0094E80F00ACE80700E3
:1012F0008CF800301CA8FEF7C3FF0A2382B21CA999
:101300001B4802F0C8FD82E71D4B1B68002BF1D083
:101310001CAC204D0FCD0FC495E8070084E80700F2
:10132000E8E700BFAFF300806666666666660A405F
:101330000000000000FEAF40666666666666FA3F23
:10134000CDCCCCCCCCCCFC3F9A99999999990540BD
:10135000BC0300206872000870030020080200200F
:1013600000408F400000F83F1F85EB5108720008D5
:10137000E0020020F8010020FC01002000080048E5
:10138000F40100200002002074020020040200206A
:101390002C7200084C72000800B583B00B4B1A6E1B
:1013A00042F001021A661A6E02F001020092009ADF
:1013B0009A6D42F080529A659B6D03F080530193C1
:1013C000019B01F0A9FA03B05DF804FB0010024094
:1013D00010B59EB00446002119911A911B911C91E1
:1013E0001D91542204A803F066FC2368B3F1A04FBA
:1013F00004D0364A934235D01EB010BD4FF400439E
:1014000004934FF00053159304A801F097FED8B948
:101410002F4A136801331360012B18D02D4BDA6C5F
:1014200042F00102DA64DB6C03F001030193019BDB
:101430000123199303231A9300231B9319A94FF037
:10144000904001F0DDF8D7E7FFF718FDE0E7214B0A
:10145000DA6C42F40052DA64DB6C03F4005300935C
:10146000009BDBE74FF4004304934FF000531593C8
:1014700004A801F063FED8B9154A1368013313605C
:10148000012B18D0134BDA6C42F00102DA64DB6CEA
:1014900003F001030393039B0223199303231A937D
:1014A00000231B9319A94FF0904001F0A9F8A3E77E
:1014B000FFF7E4FCE0E7074BDA6C42F40052DA6431
:1014C000DB6C03F400530293029BDBE70001005046
:1014D000C40300200010024010B59CB00446002157
:1014E0001791189119911A911B91542202A803F097
:1014F000E2FB2268174B9A4201D01CB010BD20239A
:10150000029302A801F01AFE00BB134BDA6D42F001
:101510000102DA65DA6D02F001020092009ADA6CDB
:1015200042F00102DA64DB6C03F001030193019BDA
:101530000C23179302221892002219921A921B93DD
:1015400017A94FF0904001F05BF8D6E7FFF796FC43
:10155000DBE700BF008000400010024002680E4B35
:101560009A4200D0704700B583B003F500339A6DFE
:1015700042F010029A659B6D03F010030193019BEA
:1015800000221146362000F0E1FF362001F016F867
:1015900003B05DF804FB00BF00100040FEE7FEE76B
:1015A000FEE7FEE7FEE770477047704708B500F0BA
:1015B00051F808BD08B54FF4005001F019F908BD05
:1015C00008B5024801F0C4FF08BD00BF7003002049
:1015D000034AD2F8883043F47003C2F88830704769
:1015E00000ED00E0104B1B680BB90120704710B5EF
:1015F00004464FF47A70B0FBF3F30C4A1068B0FB6A
:10160000F3F000F0E9FF68B90F2C01D901200AE0DE
:10161000002221464FF0FF3000F098FF044B1C6081
:10162000002000E0012010BD040000200000002088
:101630000800002010B5032000F076FF0020FFF71F
:10164000D1FF10B10124204610BD0446FFF7A4FECF
:10165000F9E70000034A1368034909680B44136063
:10166000704700BFC803002004000020014B186829
:10167000704700BFC803002030B583B0002301933A
:10168000002800F038810446C36D13B323689A68BC
:1016900012F0005F05D09A6822F0204222F03F024B
:1016A0009A602268936813F0805F1FD1936823F0DB
:1016B000104323F03F0343F0805393608F4B1B682C
:1016C0009B098F4AA2FB03239B0901335B00019313
:1016D00009E0FFF77DFE0023236684F85830D5E744
:1016E000019B013B0193019B002BF9D12268936878
:1016F00013F0805F3DD1E36D43F01003E365236E8B
:1017000043F0010323660120936813F0040300D023
:101710000123E16D11F0100F40F0E680002B40F046
:10172000E380E36D23F4817343F00203E365936880
:1017300013F0010F3ED1B2F1A04F1CD0714B9A4271
:1017400019D0714B996811F0010100D001216F4B44
:101750009B6813F0010300D001230B436C49896897
:1017600011F0010100D001210B430CBF0123002324
:1017700012E00020C8E74FF0A043996811F0010182
:1017800000D001215F4B9B6813F0010300D00123BF
:101790000B430CBF0123002363B1B2F1A04F72D001
:1017A000584B9A426DD05B4963688A6822F47C1278
:1017B00013438B60627FE36B43EA4233E268134377
:1017C000A268134394F8242043EA0243012A5CD020
:1017D000E26A22B102F47872216B0A431343216852
:1017E000CD684D4A2A401A43CA602268136923F023
:1017F0004063616B0B43136121688B6813F0040332
:1018000000D001238A6812F0080200D001224BBBED
:1018100042BB237F94F83820520042EA8332CB68DF
:1018200023F4804323F002031343CB602369002B8E
:1018300030D02268136943F4803313612268D2F8F0
:10184000C03023F47F5323F03F0321690B43C2F8D8
:10185000C03094F84030012B2BD02268136923F05C
:10186000010313616369012B35D02268136B23F0E8
:101870000F031363E36D23F0030343F00103E365F8
:1018800037E0264990E725498EE7A26A013A43EA04
:1018900042439DE72268136923F480331361226871
:1018A000D2F8C03023F47F5323F03F03C2F8C03096
:1018B000CFE721680B6923F4FF6323F00403626C14
:1018C000A56C2A43E56C2A43256D2A43134343F054
:1018D00001030B61C6E721680B6B23F00F03226A3B
:1018E000013A13430B63C5E7E36D43F01003E3656F
:1018F000012003B030BD0120FBE700BF0000002045
:10190000632D3E050001005000040050000500500A
:1019100000060050000700500740F0FF0003005091
:101920002DE9F04104460E460368B3F1A04F21D0E3
:101930004E4A93421BD04E4A976807F01F07A5698D
:10194000082D1ED0092F05D840F22122FA4012F0AE
:10195000010F11D1B3F1A04F3AD0444A934235D090
:10196000434B9B6813F4604F34D1042509E002F522
:101970000072E1E73F4ADFE7DB6813F0010F1FD198
:101980000425FFF773FE804623681A682A4227D190
:10199000B6F1FF3FF8D0FFF769FEA0EB0800B042B8
:1019A00001D8002EF0D123681B682B42ECD1E36DE7
:1019B00043F00403E365002384F85830032050E02B
:1019C000E36D43F02003E36501204AE0294BC8E7BB
:1019D000284BC6E7E36D43F02003E365012040E0B8
:1019E000E26D42F40072E265DA6812F4406F11D1E0
:1019F000627F7AB91A6812F0080F0BD0E26D22F4F8
:101A00008072E265E26D12F4805F03D1E26D42F014
:101A10000102E265154A934213D002F580629342B7
:101A20000CD01A4693420FD0092F05D840F221213D
:101A3000F94011F0010F07D1D26806E0A2F58072DB
:101A4000F0E74FF0A042EDE7DA68082D06D012F477
:101A5000804F08D10C221A60002002E008221A6090
:101A60000020BDE8F0810020FBE700BF000100502E
:101A700000070050000300500368186C7047000016
:101A8000F0B583B00022019290F85820012A00F0AE
:101A900080820346012280F858200568A86810F06B
:101AA000040F09D0DA6D42F02002DA65012000222D
:101AB00083F8582003B0F0BD4C683035220A9200FC
:101AC00002F00C02A85804F01F0E1F2404FA0EF4B2
:101AD00020EA04000C68C4F3846C0CFA0EFC40EAA3
:101AE0000C00A8501868826812F0040200D001228D
:101AF000846814F0080400D00124002A4ED1002C80
:101B00004CD18F68B7F1004F00F084800E6814301C
:101B1000720E920002F004028558C6F3045E072696
:101B200006FA0EF625EA060C07FA0EF54CEA05054C
:101B300085501868426922F0004242614D69186878
:101B4000C268C2F3C102520095400E69042E79D0DA
:101B5000603050F82670AD4A3A400F6807F0F847F9
:101B60003D432A4342F0004240F826201A680E699D
:101B70008869603252F8265025F08075284342F873
:101B800026001A680D69087F012858D0603252F883
:101B9000250020F00070044342F825401A68906840
:101BA00010F0010F12D10868CD68994CA54200F0E1
:101BB000B180D2F8B040C0F3120024EA0000C2F8AD
:101BC000B000C868924A904200F0AC800A6891491F
:101BD0000A4200F0D8811968B1F1A04F00F071817C
:101BE0008D48814200F06A818C48806800F0E07482
:101BF0008B4DAA4200F067818A4DAA4200F06381B2
:101C0000894DAA4200F09281884DAA4200F0A68137
:101C100000204CE70D6814306A0E920002F00402B6
:101C20008658C5F30455072707FA05F526EA050582
:101C300085501868426942F0004242617EE74FF0E9
:101C40000074A3E7026E046EC4F384640A68C2F3EE
:101C5000120585BBC2F38462944234D01C68626E64
:101C6000606EC0F384600A68C2F3120585BBC2F3DC
:101C70008462904234D01C68A26EA06EC0F384606F
:101C80000A68C2F3120585BBC2F38462904234D065
:101C90001C68E26EE06EC0F384600A68C2F312054D
:101CA00085BBC2F3846290427FF478AFE26E22F08B
:101CB0000042E26672E792FAA2F212B1B2FA82F23E
:101CC000CAE72022C8E7026E22F000420266C5E79A
:101CD00092FAA2F212B1B2FA82F2CAE72022C8E75F
:101CE000626E22F000426266C5E792FAA2F212B179
:101CF000B2FA82F2CAE72022C8E7A26E22F00042BE
:101D0000A266C5E792FAA2F212B1B2FA82F2CAE76B
:101D10002022C8E7D2F8B040C0F312002043C2F836
:101D2000B0004EE71C680A68C2F31205002D36D1D8
:101D3000900E013000F01F0009288CBF0020012008
:101D4000002875D0002D39D1900E0130800600F0AA
:101D5000F840002D3ED1970E013707F01F070126EE
:101D6000BE403043002D43D1920E013202F01F02DB
:101D700002EB4202120510438D6804F11407420E73
:101D8000920002F00402BC58C0F3045007268640BB
:101D900024EA060C85404CEA0505BD5016E792FA88
:101DA000A2F048B1B0FA80F0013000F01F0009281D
:101DB0008CBF00200120C3E72020F5E792FAA2F0B3
:101DC00030B1B0FA80F00130800600F0F840C0E792
:101DD0002020F8E792FAA2F646B1B6FA86F6013666
:101DE00006F01F06012707FA06F6BAE72026F6E7EF
:101DF00092FAA2F242B1B2FA82F2013202F01F026A
:101E000002EB42021205B6E72022F6E700F0FF03DC
:101E100000007F40000008800001005000070050D3
:101E2000000021C31000C090000052C7000084CB06
:101E3000CDB9900E0130800600F0F840FDB9970E44
:101E4000013707F01F070126BE4030432DBB920E1D
:101E5000013202F01F0202EB42021E3A120542F06A
:101E60000072104388E792FAA2F030B1B0FA80F025
:101E70000130800600F0F840E0E72020F8E792FA11
:101E8000A2F646B1B6FA86F6013606F01F0601271D
:101E900007FA06F6D9E72026F6E792FAA2F25AB137
:101EA000B2FA82F2013202F01F0202EB42021E3A43
:101EB000120542F00072D4E72022F3E700F500702B
:101EC00093E6354891E610F4000F7FF499AEB1F136
:101ED000A04F04D0314A914201D00020E7E5B1F192
:101EE000A04F19D02E4A914214D02E4944F4000438
:101EF0008A6822F0E07214438C602B4A12689209BF
:101F00002A49A1FB02129209013202EB420292001D
:101F1000019206E02049E9E71F49E7E7019A013A03
:101F20000192019A002AF9D10020C0E510F0807FCB
:101F30007FF46AAEB1F1A04F0ED0194A914209D098
:101F4000184944F080748A6822F0E07214438C606F
:101F50000020ACE51049F4E70F49F2E710F4800FD8
:101F600013D10F4A914212D0B1F1A04F09D00D48C0
:101F700044F48002816821F0E0710A43826000200D
:101F800095E50548F4E7002091E500208FE5002065
:101F90008DE502208EE500BF0003005000060050D2
:101FA000000100500007005000000020632D3E0596
:101FB00070B5044603689A6812F0040200D001224A
:101FC000986810F0080000D001200AB900286BD0F2
:101FD000DA6812F0007F04D0A08B40F20112904228
:101FE0004ED0022910D023689A6812F0040F0BD04B
:101FF0009A6812F0020F07D19A6822F0004222F08C
:102000003F0242F010029A60012910D023689A68BA
:1020100012F0080F0BD09A6812F0020F07D19A68DD
:1020200022F0004222F03F0242F020029A60022990
:1020300034D0032934D10C25FFF718FB064623685A
:102040009B682B422ED0FFF711FB801B0528F6D989
:1020500023689B682B42F2D0E36D43F01003E365E5
:10206000236E43F00103236601201CE0E36D43F07F
:102070001003E365236E43F001032366012012E0A1
:102080000022196811F0400F04D108498A42EDD8A6
:102090000132F6E740221A600121A4E70825CBE7C8
:1020A0000425C9E7002070BD0020FCE7FFFF3FA327
:1020B00038B503689A6812F0010F40D10446996858
:1020C000204A114209D0C36D43F01003C365036E6B
:1020D00043F001030366012032E09A6822F00042D7
:1020E00022F03F0242F001029A60FFF7BFFA054674
:1020F00023681A6812F0010F1FD19A6812F0010FBD
:1021000007D19A6822F0004222F03F0242F0010219
:102110009A60FFF7ABFA431B022BE9D923681B68CF
:1021200013F0010FE4D1E36D43F01003E365236E78
:1021300043F001032366012002E0002000E00020BC
:1021400038BD00BF3F00008038B504460368B3F1D6
:10215000A04F60D0464A93425AD0464A956805F04F
:102160001F059B6813F0040F7DD194F85830012BA4
:102170007BD0012384F858302046FFF799FF0028D0
:102180006DD1E36D23F4706323F0010343F4807396
:10219000E3652368364A934242D002F58062934257
:1021A0003BD01A46934200D01DB9E26D22F4801252
:1021B000E265E26D12F4805F35D0226E22F00602F5
:1021C00022661C221A60002384F858302368284AAB
:1021D00093422ED002F58062934227D01A46934252
:1021E0002AD0092D05D840F22121E94011F0010F34
:1021F00022D1E36D43F48013E365D36813F0007FCD
:1022000032D0E36D23F4405343F48053E3652BE075
:1022100002F50072A2E7184AA0E7A2F58072C1E7B2
:102220004FF0A042BEE700222266CAE7A2F5807204
:10223000D5E74FF0A042D2E7DA6812F0007F05D070
:10224000E26D22F4405242F48052E2659A6822F034
:10225000004222F03F0242F004029A6004E00023B0
:1022600084F8583000E0022038BD0220FCE700BFAF
:1022700000010050000700500003005038B504462C
:102280000268936813F0020300D00123916811F0F3
:10229000010F39D0002B39D1936803F00D03012BC6
:1022A00009D0E36D43F01003E365236E43F00103AF
:1022B0002366012029E0936823F0004323F03F03C5
:1022C00043F002039360236803221A60FFF7CEF9FC
:1022D000054623689B6813F0010F13D0FFF7C6F97A
:1022E000401B0228F5D923689B6813F0010FF0D03A
:1022F000E36D43F01003E365236E43F001032366AF
:10230000012002E0002000E0002038BD0020FCE7B2
:1023100090F85830012B1AD010B50446012380F8EC
:1023200058300321FFF744FE18B1002384F85830D9
:1023300010BD2046FFF7A2FF0028F6D1E36D23F47D
:10234000885323F0010343F00103E365EDE7022026
:102350007047000090F85820012A00F0D68010B491
:102360009DB00346012280F858200022189219924D
:102370000068B0F1A04F47D0654A904247D0002294
:102380000192019A002A46D0926812F0040200D00D
:102390000122846814F0040F40F0A780002A40F066
:1023A000A480B0F1A04F42D05A4A90423CD05A4A41
:1023B000086800285CD0906820F460404C6893F86E
:1023C00038C044EA4C34204390601868B0F1A04F04
:1023D0002FD0504CA0422CD04D48846814F00104FA
:1023E00000D001244D48806810F0010000D0012089
:1023F00020434B4CA46814F0010400D00124204376
:102400000CBF0120002025E0424A0192B9E702F505
:1024100080720192B5E7DA6D42F02002DA6500229F
:1024200083F85820012068E002F50072C0E73D4AB9
:10243000BEE74FF0A040846814F0010400D00124EE
:102440003448806810F0010000D0012020430CBF08
:1024500001200020002854D0906820F4716020F002
:102460000F000C688968214308439060002041E018
:10247000916821F4604191601968B1F1A04F1AD0C0
:102480002448814217D02249886810F0010000D00A
:1024900001202249896811F0010100D00121014386
:1024A0001F48806810F0010000D0012001430CBFDC
:1024B0000121002110E04FF0A041886810F00100D8
:1024C00000D001201349896811F0010100D00121D9
:1024D00001430CBF01210021A9B1916821F4716170
:1024E00021F00F019160002004E0DA6D42F020023B
:1024F000DA650120002283F858201DB05DF8044BF6
:1025000070470020F6E70020F4E70220704700BF84
:10251000000400500001005000070050000500506A
:102520000006005000030050074AD36823F4E0631C
:102530001B041B0C000200F4E060034343F0BF6384
:1025400043F40033D360704700ED00E000B5194B51
:10255000DB68C3F30223C3F1070CBCF1040F28BFEF
:102560004FF0040C03F1040EBEF1060F18D9033B23
:102570004FF0FF3E0EFA0CFC21EA0C0199400EFAD6
:1025800003FE22EA0E020A4300280BDB1201D2B23C
:1025900000F1604000F5614080F800235DF804FB25
:1025A0000023E5E700F00F001201D2B2024B1A54EB
:1025B000F4E700BF00ED00E014ED00E0002807DBC9
:1025C00000F01F02400901239340024A42F82030E4
:1025D000704700BF00E100E00138B0F1807F0BD20E
:1025E0004FF0E0235861054AF02182F823100020C3
:1025F000986107221A6170470120704700ED00E0E2
:10260000F0B583B0002362E085685E000324B44027
:1026100025EA0405CC68B4402C438460456825EA6B
:102620000C054C68C4F300149C402C4344605FE0EC
:10263000DD08083550F8254003F0070C4FEA8C0CF4
:102640004FF00F0E0EFA0CFE24EA0E0E0C6904FA7F
:102650000CF444EA0E0440F8254060E0052400E054
:10266000002404FA0EF42C430CF1020C554D45F8ED
:102670002C40554CA568D44325EA02064F6817F450
:10268000801F01D042EA05064F4DAE60ED6804EAB6
:1026900005064F6817F4001F01D042EA05064A4DAF
:1026A000EE606D6804EA05064F6817F4003F01D03C
:1026B00042EA0506444D6E602D682C404E6816F4C3
:1026C000803F01D042EA05043F4A146001330A68A2
:1026D00032FA03F474D04FF0010C0CFA03FC1CEA3C
:1026E0000202F3D04C6804F00304013C012C8BD9A6
:1026F0004C6804F00304032C0CD0C4685D004FF058
:10270000030C0CFA05FC24EA0C0C8C68AC4044EA7F
:102710000C04C4604C6804F00304022C88D00468E4
:102720004FEA430E4FF0030C0CFA0EFC24EA0C0C9B
:102730004C6804F0030404FA0EF444EA0C04046048
:102740004C6814F4403FC1D0204C256E45F0010583
:102750002566246E04F001040194019C4FEA930C59
:102760000CF10205174C54F8255003F0030E4FEA04
:102770008E0E0F2404FA0EF425EA0405B0F1904FF2
:102780003FF46EAF124CA04212D004F58064A04218
:1027900010D004F58064A0420ED004F58064A042FD
:1027A0000CD004F58064A0423FF458AF062458E7EB
:1027B000012456E7022454E7032452E7042450E797
:1027C00003B0F0BD000001400004014000100240D1
:1027D000000400480AB18161704781627047436913
:1027E00001EA030221EA030141EA024181617047E3
:1027F00008B5054B5B69034200D108BD024B586127
:10280000FEF71CFBF9E700BF00040140002836D1A9
:102810003E4B1B6803F4C063B3F5806F08D03B4A9E
:10282000D2F8803023F48073C2F8803000207047E3
:10283000364AD2F8803023F48073C2F880301368AF
:1028400023F4C06343F400731360314B1B683222DE
:1028500002FB03F32F4AA2FB03239B0C013300E08E
:10286000013B2A4A526912F4806F01D0002BF7D144
:10287000264B5B6913F4806F44D100207047B0F59C
:10288000007F08D0214A136823F4C06343F48063B7
:102890001360002070471D4B1B6803F4C063B3F541
:1028A000806F08D0194AD2F8803043F48073C2F8A0
:1028B000803000207047154AD2F8803043F480738E
:1028C000C2F88030136823F4C06343F400731360CC
:1028D0000F4B1B68322202FB03F30E4AA2FB0323B9
:1028E0009B0C013300E0013B084A526912F4806FEF
:1028F00001D0002BF7D1054B5B6913F4806F03D136
:10290000002070470320704703207047007000408C
:102910000000002083DE1B43024A936843F4804397
:102920009360704700700040124BDA6802F00302B7
:10293000DB68C3F303130133032A11D00E48B0FB45
:10294000F3F00C4BDB68C3F3062303FB00F0094BE9
:10295000DB68C3F3416301335B00B0FBF3F0704706
:102960000648B0FBF3F0034BDB68C3F3062303FB1D
:1029700000F0ECE7001002400024F40000366E0185
:10298000002800F0548270B582B00446036813F04A
:10299000010F37D0A44A936803F00C03D26802F009
:1029A00003020C2B23D0082B23D06368B3F5803FA0
:1029B0004ED0B3F5A02F51D09B4B1A6822F4803231
:1029C0001A601A6822F480221A606368002B52D0C1
:1029D000FEF74CFE0546944B1B6813F4003F11D1E3
:1029E000FEF744FE401B6428F5D9032028E2032AA1
:1029F000D9D18D4B1B6813F4003F03D06368002BC3
:102A000000F01782236813F0020F5DD0864A9368A6
:102A100003F00C03D26802F003020C2B3AD0042B13
:102A20003AD0E368002B75D07F4A136843F4807373
:102A30001360FEF71BFE05467B4B1B6813F4806F8B
:102A40005FD1FEF713FE401B0228F5D90320F7E102
:102A5000754A136843F480331360B6E703F180438B
:102A6000A3F53C331A6842F480221A601A6842F4D3
:102A700080321A60A9E7FEF7F9FD05466A4B1B682C
:102A800013F4003FBED0FEF7F1FD401B6428F5D9DA
:102A90000320D5E1022AC2D1634B1B6813F4806F77
:102AA00003D0E368002B00F0C6815F4A536823F02F
:102AB000FE43216943EA016353605C4B1868FEF7EB
:102AC00091FD002840F0B981236813F0080F4CD025
:102AD00063699BB3544AD2F8943043F00103C2F8BF
:102AE0009430FEF7C3FD05464F4BD3F8943013F0F6
:102AF000020F3AD1FEF7BAFD401B0228F4D9032099
:102B00009EE1494A536823F0FE43216943EA016389
:102B10005360D9E7444A136823F480731360FEF7C7
:102B2000A5FD0546404B1B6813F4806FCCD0FEF723
:102B30009DFD401B0228F5D9032081E13A4AD2F8D5
:102B4000943023F00103C2F89430FEF78FFD054660
:102B5000354BD3F8943013F0020F06D0FEF786FD04
:102B6000401B0228F4D903206AE1236813F0040F04
:102B700000F081802C4B9B6D13F0805F36D12A4B87
:102B80009A6D42F080529A659B6D03F080530193D9
:102B9000019B0125264B1B6813F4807F28D0A36876
:102BA000012B39D0052B45D01F4BD3F8902022F0B4
:102BB0000102C3F89020D3F8902022F00402C3F859
:102BC0009020A368002B43D0FEF750FD0646164B1D
:102BD000D3F8903013F0020F4CD1FEF747FD801B65
:102BE00041F288339842F2D9032029E10025D1E748
:102BF0000F4A136843F480731360FEF737FD0646EF
:102C00000B4B1B6813F4807FC9D1FEF72FFD801B8F
:102C10000228F5D9032013E1034AD2F8903043F09B
:102C20000103C2F89030CCE70010024008000020F9
:102C3000007000408A4BD3F8902042F00402C3F8A1
:102C40009020D3F8902042F00102C3F89020B8E71A
:102C5000FEF70CFD0646824BD3F8903013F0020FBE
:102C600008D0FEF703FD801B41F288339842F2D969
:102C70000320E5E0E5B9236813F0200F35D0A36900
:102C8000E3B1774AD2F8983043F00103C2F89830A4
:102C9000FEF7ECFC0546724BD3F8983013F0020FA8
:102CA00023D1FEF7E3FC401B0228F4D90320C7E040
:102CB0006B4A936D23F080539365DCE7684AD2F842
:102CC000983023F00103C2F89830FEF7CFFC054698
:102CD000634BD3F8983013F0020F06D0FEF7C6FC12
:102CE000401B0228F4D90320AAE0E369002B00F07E
:102CF000A6805B4A926802F00C020C2A69D0022B73
:102D00001DD0574B1A6822F080721A60DA6822F0E0
:102D10000302DA60DA6822F0887222F48032DA6024
:102D2000FEF7A4FC04464E4B1B6813F0007F4ED008
:102D3000FEF79CFC001B0228F5D9032080E0484ADE
:102D4000136823F080731360FEF790FC0546444B34
:102D50001B6813F0007F06D0FEF788FC401B02289A
:102D6000F5D903206CE03E4AD3683E491940236AF6
:102D7000606A013843EA0013A06A43EA0023206B2B
:102D80004008013843EA4053606B4008013843EA89
:102D90004063E06A43EAC0631943D160136843F0BB
:102DA00080731360D36843F08073D360FEF75EFCDA
:102DB00004462B4B1B6813F0007F06D1FEF756FC30
:102DC000001B0228F5D903203AE0002038E000205B
:102DD00036E0012B36D0224BDB6803F00301226A78
:102DE000914231D103F0F002616A0139B2EB011F67
:102DF0002CD103F4FE42A16AB2EB012F28D103F0DB
:102E00007842E16AB2EBC16F24D103F4C001226BB6
:102E10005208013AB1EB425F1ED103F0C063626B0E
:102E20005208013AB3EB426F18D1002008E00120AC
:102E30007047012004E0012002E0012000E00020B2
:102E400002B070BD0120FBE70120F9E70120F7E7A0
:102E50000120F5E70120F3E70120F1E70120EFE78A
:102E6000001002400C809F011E4B9B6803F00C0376
:102E7000042B33D01B4B9B6803F00C03082B2FD083
:102E8000184B9B6803F00C030C2B01D000207047FB
:102E9000144BDA6802F00302DB68C3F30313013357
:102EA000032A11D01048B0FBF3F00E4BDB68C3F3DC
:102EB000062303FB00F00B4BDB68C3F341630133D4
:102EC0005B00B0FBF3F070470848B0FBF3F0054B34
:102ED000DB68C3F3062303FB00F0ECE7024870470E
:102EE00002487047001002400024F40000366E01D2
:102EF000002800F0E680F8B50C460546744B1B68C8
:102F000003F00F038B420BD2714A136823F00F03B7
:102F10000B431360136803F00F038B4240F0D38020
:102F20002E6816F001065FD06B68032B2FD0022BA2
:102F30004DD0684B1B6813F4806F00F0C680FFF71C
:102F400093FF654B98424DD9624A936823F0F00392
:102F500043F08003936080265E4A936823F0030366
:102F600069680B439360FEF781FB0746594B9B68EA
:102F700003F00C036A68B3EB820F35D0FEF776FBE3
:102F8000C01B41F288339842F0D9032078E0514BBE
:102F90001B6813F0007F01D1012071E0FFF7C4FC32
:102FA0004D4B98421AD94B4B9B6813F0F00F05D04C
:102FB0002E6816F00206CFD0AB688BB9454A9368ED
:102FC00023F0F00343F0800393608026C4E7414B75
:102FD0001B6813F4003FB2D1012051E00026BBE78B
:102FE0000026B9E70026B7E72B6813F0020F48D098
:102FF00013F0040F04D0374A936843F4E0639360FE
:103000002B6813F0080F06D0324A936823F47C53E0
:1030100043F4E06393602F4A936823F0F003A968B8
:103020000B4393602A4B1B6803F00F03A34230D875
:103030002B6813F0040F06D0264A936823F4E0634C
:10304000E9680B4393602B6813F0080F07D0214AFF
:10305000936823F46053296943EAC1039360FFF73F
:1030600003FF1C4B9B68C3F303131C4AD35C03F0A0
:103070001F03D8401A4B18601A4B1868FEF7B2FAB3
:10308000F8BD802ECED1134A936823F0F0039360ED
:10309000C8E70F4A136823F00F0323431360FEF7BA
:1030A000E5FA06460A4B1B6803F00F03A342BFD0A4
:1030B000FEF7DCFA801B41F288339842F2D90320F4
:1030C000DEE7012070470120DAE70120D8E700BFE2
:1030D000002002400010024000B4C404A87200089E
:1030E0000000002008000020014B1868704700BF56
:1030F0000000002008B5FFF7F7FF054B9B68C3F3FE
:103100000223044AD35C03F01F03D84008BD00BF6C
:1031100000100240B872000808B5FFF7E5FF054B44
:103120009B68C3F3C223044AD35C03F01F03D84057
:1031300008BD00BF00100240B8720008F0B583B0AF
:103140000446036813F4002F6ED0354B9B6D13F0CB
:10315000805F1ED1324B9A6D42F080529A659B6D12
:1031600003F080530193019B01262E4A136843F418
:1031700080731360FEF77AFA05462A4B1B6813F436
:10318000807F08D1FEF772FA401B0228F5D903258B
:1031900002E00026E9E7002545BB214BD3F890303B
:1031A00013F4407315D0226D9A4212D01C4AD2F803
:1031B000903023F44073D2F8901041F48031C2F87B
:1031C0009010D2F8901021F48031C2F89010C2F81B
:1031D000903013F0010F10D145B9114AD2F8903058
:1031E00023F44073216D0B43C2F89030EEB10C4ACA
:1031F000936D23F08053936517E0FEF737FA074687
:10320000074BD3F8903013F0020FE5D1FEF72EFAFA
:10321000C01B41F288339842F2D90325DCE700BF96
:1032200000100240007000400025236813F0010FD9
:1032300008D09F4AD2F8883023F0030361680B431B
:10324000C2F88830236813F0020F08D0984AD2F8E9
:10325000883023F00C03A1680B43C2F88830236840
:1032600013F0040F08D0924AD2F8883023F03003CC
:10327000E1680B43C2F88830236813F0080F08D0C8
:103280008B4AD2F8883023F0C00321690B43C2F87F
:103290008830236813F0100F08D0854AD2F88830A0
:1032A00023F4407361690B43C2F88830236813F03C
:1032B000200F08D07E4AD2F8883023F44063A169F9
:1032C0000B43C2F88830236813F0400F08D0784AC7
:1032D000D2F8883023F44053E1690B43C2F88830B8
:1032E000236813F0800F08D0714AD2F8883023F495
:1032F0004043216A0B43C2F88830236813F4807F6F
:1033000008D06B4AD2F8883023F44033616A0B430B
:10331000C2F88830236813F4003F08D0644AD2F81A
:103320009C3023F00303A16A0B43C2F89C3023684E
:1033300013F4007F08D05E4AD2F8883023F440238B
:10334000E16A0B43C2F88830236813F4806F0CD015
:10335000574AD2F8883023F44013216B0B43C2F84C
:103360008830236BB3F5801F79D0236813F4006F86
:103370000CD04F4AD2F8883023F44003616B0B43E2
:10338000C2F88830636BB3F5800F6DD0236813F4F7
:10339000805F0CD0464AD2F8883023F04073A16B8E
:1033A0000B43C2F88830A36BB3F1807F61D02368F0
:1033B00013F4005F0CD03E4AD2F8883023F040630B
:1033C000E16B0B43C2F88830E36BB3F1006F55D06B
:1033D000236813F4804F0CD0354AD2F8883023F09C
:1033E0004063216C0B43C2F88830236CB3F1006F4B
:1033F00049D0236813F4004F0CD02D4AD2F88830FE
:1034000023F04053616C0B43C2F88830636CB3F116
:10341000805F3DD0236813F4803F0CD0244AD2F85B
:10342000883023F04043A16C0B43C2F88830A36C72
:10343000B3F1804F31D0236813F4802F0CD01C4A95
:10344000D2F89C3023F44013E16C0B43C2F89C305B
:10345000E36CB3F5001F25D0284603B0F0BDD36858
:1034600043F48013D36080E7D36843F48013D360C0
:103470008CE7D36843F48013D36098E7D36843F4B0
:103480008013D360A4E7D36843F48013D360B0E71C
:10349000D36843F48033D360BCE7D36843F480330C
:1034A000D360C8E7D36843F48013D360D4E700BF88
:1034B0000010024090F83D30DBB2012B3AD10223DC
:1034C00080F83D300268D36843F00103D36003689D
:1034D0001B4A934220D0B3F1804F1DD0A2F5943205
:1034E000934219D002F58062934215D002F58062B2
:1034F000934211D002F5943293420DD002F540620E
:10350000934209D002F58052934205D01A6842F0E6
:1035100001021A600020704799680A4A0A40062A88
:103520000AD0B2F5803F09D01A6842F001021A6051
:10353000002070470120704700207047002070472E
:10354000002C01400700010070477047704770472A
:1035500010B5044603681A6912F0020F12D0DA6837
:1035600012F0020F0ED06FF002021A6101230377EE
:1035700003689B6913F0030F00F09F80FFF7E5FFDE
:103580000023237723681A6912F0040F13D0DA6836
:1035900012F0040F0FD06FF004021A610223237798
:1035A00023689B6913F4407F00F08D802046FFF76D
:1035B000CCFF0023237723681A6912F0080F12D07A
:1035C000DA6812F0080F0ED06FF008021A610423B7
:1035D00023772368DB6913F0030F7BD02046FFF7C6
:1035E000B4FF0023237723681A6912F0100F12D05A
:1035F000DA6812F0100F0ED06FF010021A61082373
:1036000023772368DB6913F4407F6AD02046FFF7F5
:103610009CFF0023237723681A6912F0010F03D05F
:10362000DA6812F0010F63D123681A6912F0800F73
:1036300003D0DA6812F0800F61D123681A6912F49E
:10364000807F03D0DA6812F0800F5FD123681A6997
:1036500012F0400F03D0DA6812F0400F5DD12368FA
:103660001A6912F0200F03D0DA6812F0200F5BD134
:1036700023681A6912F4801F03D0DA6812F4801FDD
:1036800059D123681A6912F4001F03D0DA6812F4C2
:10369000001F57D123681A6912F4800F03D0DA682B
:1036A00012F4800F55D123681A6912F4000F03D069
:1036B000DA6812F4000F53D110BDFFF745FF204622
:1036C000FFF744FF5CE72046FFF73EFF2046FFF789
:1036D0003DFF6EE72046FFF737FF2046FFF736FF36
:1036E0007FE72046FFF730FF2046FFF72FFF90E7E8
:1036F0006FF001021A612046FDF750FB94E76FF06E
:1037000080021A61204600F02AF996E76FF4807271
:103710001A61204600F024F998E76FF040021A6120
:103720002046FFF714FF9AE76FF020021A61204647
:1037300000F014F99CE76FF480121A61204600F043
:1037400010F99EE76FF400121A61204600F00AF9A2
:10375000A0E76FF480021A61204600F004F9A2E7A6
:103760006FF400021A61204600F0FEF8A4E70000A2
:103770000368364A904216D0B0F1804F13D0A2F5BC
:10378000943290420FD002F5806290420BD002F545
:103790008062904207D002F59432904203D002F545
:1037A000E052904203D123F070034A681343274A42
:1037B000904222D0B0F1804F1FD0A2F594329042B7
:1037C0001BD002F58062904217D002F580629042D1
:1037D00013D002F5943290420FD002F5406290422D
:1037E0000BD002F58062904207D002F580629042D1
:1037F00003D002F50062904203D123F44073CA68FB
:10380000134323F080034A69134303608B68C36248
:103810000B6883620D4B984213D003F50063984206
:103820000FD003F5406398420BD003F580639842B4
:1038300007D003F58063984203D003F500639842F4
:1038400001D10B690363012343617047002C0140E0
:1038500060B310B5044690F83D3013B3022384F8EA
:103860003D30214651F8040BFFF782FF012384F815
:10387000483084F83E3084F83F3084F8403084F893
:10388000413084F8423084F8433084F8443084F87E
:10389000453084F8463084F8473084F83D300020C5
:1038A00010BD80F83C30FDF759FED7E70120704786
:1038B00090F83C20012A4CD030B40346012280F815
:1038C0003C20022280F83D20006842688468224D36
:1038D000A84207D005F50065A84203D005F5E055DC
:1038E000A84203D122F470024D682A4322F00072EC
:1038F00022F070020D682A4342601A68164882421C
:103900001AD0B2F1804F17D0A0F59430824213D074
:1039100000F5806082420FD000F5806082420BD0BB
:1039200000F59430824207D000F54060824203D017
:1039300000F58050824204D124F08004896821433C
:103940009160012283F83D20002083F83C0030BCC8
:1039500070470220704700BF002C0140704770473D
:1039600070477047704770477047000070B5044655
:10397000016883680269134342691343C2691343B0
:103980000868964A02401A430A602268536823F482
:103990004053E1680B435360A1692268904B9A42FF
:1039A00001D0236A1943936823F06E4323F43063F4
:1039B0000B4393602268D36A23F00F03616A0B43C1
:1039C000D3622368874A934210D0874A934221D01A
:1039D000864A934237D0864A93425CD0854A9342C6
:1039E0006BD07F4A93427DD010223AE002F55842D4
:1039F000D2F8882002F00302032A09D8DFE802F097
:103A00000204870601222CE004222AE0082228E092
:103A1000102226E002F5E632D2F8882002F00C02ED
:103A20000C2A0ED8DFE802F0070D0D0D090D0D0D63
:103A3000750D0D0D0B00002213E0042211E0082289
:103A40000FE010220DE002F5E432D2F8882002F0F7
:103A50003002202A5FD01AD8002A5ED0102A5ED108
:103A600004225F498B4276D0E069B0F5004F00F048
:103A7000C980082A00F23481DFE812F0F70019014A
:103A8000F50032011C013201320132011F01302ADE
:103A900047D10822E5E702F5E232D2F8882002F0A9
:103AA000C002802A3FD004D8FAB3402A3FD1042272
:103AB000D7E7C02A3DD10822D3E702F5E032D2F899
:103AC000882002F44072B2F5007F34D005D8A2B34A
:103AD000B2F5807F33D10422C3E7B2F5407F30D105
:103AE0000822BEE702F5C832D2F8882002F440620C
:103AF000B2F5006F27D005D83AB3B2F5806F26D162
:103B00000422AEE7B2F5406F23D10822A9E70222D2
:103B1000A7E70222A5E70222A3E70022A1E71022DD
:103B20009FE710229DE702229BE7002299E71022DF
:103B300097E7102295E7022293E7002291E71022EF
:103B40008FE710228DE702228BE7002289E71022FF
:103B500087E7102285E7082A00F2B280DFE802F04A
:103B600008B03BB038B0B0B005004FF4004004E0FE
:103B7000FFF7C0FA002800F0A580626A1E4B33F8F8
:103B80001220B0FBF2F3656805EB4501994200F2A3
:103B90009B80B3EB053F00F2998000263346314607
:103BA000FDF75AF8090241EA106100026B08C018DB
:103BB0002A46334641F10001FDF74EF8A0F5407268
:103BC0000E4B9A4200F284802368D860304665E04C
:103BD000FFF74AF9CEE70A48CFE700BFF369FFCF06
:103BE0000080004000380140004400400048004090
:103BF000004C004000500040C0720008FFFC0F0065
:103C00000024F400082A65D8DFE802F007270564DD
:103C10002A6464640B00354803E0FFF76BFA002860
:103C20005AD0626A324B33F81230B0FBF3F062685C
:103C3000530803EB4003B3FBF2F3A3F110014FF67B
:103C4000EF7291424AD89AB222F00F02C3F34203B4
:103C500013432268D360002020E0FFF75DFADEE71F
:103C6000FFF702F9DBE7214803E0FFF743FA0028FA
:103C700038D0626A1E4B33F81230B0FBF3F0636841
:103C800000EB5300B0FBF3F0A0F110024FF6EF731E
:103C90009A4229D8236880B2D86000200123A4F872
:103CA0006A30A4F8683000232367636770BDFFF7AC
:103CB00033FADCE7FFF7D8F8D9E74FF40040D8E74C
:103CC0000120EBE70020E9E70120E7E70120E5E735
:103CD0000120E3E70120E1E70020DFE70120DDE745
:103CE0000120DBE70020D9E70120D7E70024F4001A
:103CF000C0720008836A13F0010F06D0026853688F
:103D000023F40033C16A0B435360836A13F0020F3C
:103D100006D00268536823F48033016B0B43536071
:103D2000836A13F0040F06D00268536823F48023DB
:103D3000416B0B435360836A13F0080F06D002688F
:103D4000536823F40043816B0B435360836A13F081
:103D5000100F06D00268936823F48053C16B0B43A5
:103D60009360836A13F0200F06D00268936823F4EF
:103D70000053016C0B439360836A13F0400F0AD029
:103D80000268536823F48013416C0B435360436C07
:103D9000B3F5801F0BD0836A13F0800F06D0026842
:103DA000536823F40023C16C0B43536070470268CF
:103DB000536823F4C003816C0B435360EBE72DE998
:103DC000F84305460F4616469946DDF820802B68D5
:103DD000DC6937EA04040CBF01240024B44257D143
:103DE000B8F1FF3FF3D0FDF741FCA0EB09004045DF
:103DF0002FD8B8F1000F2CD02B681A6812F0040FDE
:103E0000E5D0DA6912F4006FE1D04FF400621A6273
:103E10002A6852E8003F23F4D07342E800310029B9
:103E2000F6D12A6802F1080353E8003F23F00103AA
:103E3000083242E800310029F3D12023C5F884304C
:103E4000C5F88830C5F88C30002385F88030032011
:103E50001FE02A6852E8003F23F4D07342E80031A3
:103E60000029F6D12A6802F1080353E8003F23F045
:103E70000103083242E800310029F3D12023C5F8BC
:103E80008430C5F88830002385F88030032000E0B6
:103E90000020BDE8F8832DE9F04182B01E46D0F83D
:103EA0008430202B58D104460D469046002957D027
:103EB000002A57D090F88030012B55D0012380F88C
:103EC00080300023C0F88C302123C0F88430FDF707
:103ED000CDFB0746A4F85480A4F85680A368B3F538
:103EE000805F05D04FF00008002384F8803014E094
:103EF000236913B14FF00008F6E7A8460025F3E761
:103F000038F8023B2268C3F308039362B4F85620E2
:103F100092B2013A92B2A4F85620B4F856309BB24D
:103F200073B100963B46002280212046FFF747FFF1
:103F3000E0B9002DE4D015F8012B23689A62E5E77B
:103F400000963B46002240212046FFF738FF78B913
:103F50002023C4F8843000E0022002B0BDE8F081E4
:103F60000120FAE70120F8E70220F6E70320F4E752
:103F70000320F2E730B583B004460023C0F88C304C
:103F8000FDF774FB05462268126812F0080F0FD186
:103F900023681B6813F0040F18D12023C4F8843061
:103FA000C4F888300020E06684F8800003B030BD9B
:103FB0006FF07E430093034600224FF40011204629
:103FC000FFF7FDFE0028E3D00320EFE76FF07E430C
:103FD00000932B4600224FF480012046FFF7EFFEAE
:103FE0000028DAD00320E1E778B310B50446D0F812
:103FF00084300BB32423C4F884302268136823F080
:10400000010313602046FFF7B1FC012813D0A36A17
:10401000BBB92268536823F49043536022689368C5
:1040200023F02A0393602268136843F001031360AE
:104030002046FFF79FFF10BD80F88030FDF74CFA57
:10404000D8E72046FFF756FEE3E70120704700005F
:10405000436E2BB90123A0F86A30A0F8683070478E
:1040600030B403689A68C2F342629968490F094DF7
:104070006B5CDB00084C615C93FBF1F3A0F86A30E9
:10408000AB5CDB00A25C93FBF2F3A0F8683030BCC1
:10409000704700BFE0720008D872000890F88030C6
:1040A000012B18D0012380F880302423C0F88430FD
:1040B00003681A68196821F00101196022F00052A2
:1040C0000023436601680A602022C0F8842080F83B
:1040D0008030184670470220704738B590F880301D
:1040E000012B1DD00446012380F880302423C0F822
:1040F000843003681D681A6822F001021A600268A1
:10410000936823F0604319439160FFF7A1FF236890
:104110001D602023C4F88430002084F8800038BD5E
:104120000220FCE738B590F88030012B1DD0044602
:10413000012380F880302423C0F8843003681D6890
:104140001A6822F001021A600268936823F0606323
:1041500019439160FFF77CFF23681D602023C4F89A
:104160008430002084F8800038BD0220FCE7000085
:104170000D4885460D480E490E4A002302E0D458EA
:10418000C4500433C4188C42F9D30B4A0B4C00239F
:1041900001E013600432A242FBD3FDF719FA00F0EC
:1041A000DDFDFCF78DFFFEE700000220000000208F
:1041B000D40100208C760008D40100201C050020CA
:1041C000FEE72DE9FF4755EC104B002D0E46194632
:1041D0002B46BBBF05F100431D4600232D230B706A
:1041E0000D9BDDF830A0914623F02008BCBF22468D
:1041F0001446B8F1460F05D0B8F1450F00D101368D
:10420000022100E0032103AB019302AB009345ECD4
:10421000104B5346324600F04FFEB8F1470F0746A9
:1042200002D119F0010F22D0B8F1460F07EB0609B1
:1042300010D13B78302B0AD100220023204629469A
:10424000FCF74AFC18B9C6F10106CAF80060DAF8B2
:10425000003099440022002320462946FCF73CFC0C
:1042600008B1CDF80C903022039B4B4507D3039B3C
:104270000E9ADB1B3846136004B0BDE8F087591C6A
:1042800003911A70F0E7F7B503460029B8BF494219
:1042900003F8022BB4BF2D222B22092942702ADDFC
:1042A0000DF1070217460A26944691FBF6F506FB28
:1042B000151430340CF8014C0C46632C02F1FF321B
:1042C0002946F1DC3031ACF1020402F8011C411C3A
:1042D0002246BA420AD30DF10902A2EB0C02BC42FB
:1042E00088BF00221344181A03B0F0BD12F8015B16
:1042F00001F8015FEDE7302330318370C170031D99
:10430000F1E700002DE9F04F2DED028B8DB00C464A
:10431000DDF8608016461F46054600F0D5FCD0F853
:1043200000A05046FBF7ACFF00230A9323680593D7
:10433000D8F8003094F818B0073323F0070303F1DE
:104340000802C8F80020D3E9008929F00043079348
:10435000CDF8188008EE100AC4E91289DDE90601DB
:104360009E4B4FF0FF32FCF7E9FB88BBDDE906010D
:104370009A4B4FF0FF32FCF7C3FB48BB00220023EF
:1043800040464946FCF7B2FB10B12D2384F8433078
:10439000934A944BBBF1470F94BF90469846032332
:1043A0002361059B23F0040323604FF0000900976D
:1043B00033460BAA2146284600F0DAF9013040F0D6
:1043C00090804FF0FF300DB0BDEC028BBDE8F08F58
:1043D00042464B4640464946FCF7B0FB40B14B468F
:1043E000002BBCBF2D2384F843307F4A7F4BD1E79D
:1043F00063680BF0DF0206925A1C3FD1062363600C
:10440000059B616843F48062002303930AABCDE906
:1044100001B309AB49EC108B009322600DF123032B
:104420002846FFF7CEFE069B0999472B804608D108
:10443000C81C02DB6368994241DDABF102035FFAFD
:1044400083FBBBF1650F20D801395A4604F15000B7
:104450000991FFF718FF0A9A1318012A8146236170
:1044600002DC2268D20701D5013323619DF8233095
:10447000002B9CD02D2384F8433098E7069A472AD6
:10448000BED1002BBCD10123B9E7BBF1660F18D117
:10449000002963680BDD216113B92268D00702D5BA
:1044A00001330B442361A1654FF00009DEE713B926
:1044B0002268D20701D50233F4E70123F2E74FF077
:1044C000670B0A9B994205DB23682161D807EAD56F
:1044D0004B1CE7E70029D4BFC1F1020201221344BB
:1044E000E0E723685A0507D4236942463146284647
:1044F000B84701302CD164E7BBF1650F40F2E08092
:10450000D4E9120100220023FCF7E6FA002834D097
:10451000374A012331462846B84701303FF451AFAE
:10452000DDE909239A4202DB2368D80710D518EE8B
:10453000103A524631462846B84701303FF441AF61
:104540004FF0000804F11A090A9B013B434509DCBE
:1045500023689B0700F10781E0680B9B9842B8BF76
:10456000184630E701234A4631462846B84701300D
:104570003FF427AF08F10108E6E7099B002B39DC7F
:104580001B4A012331462846B84701303FF419AF92
:10459000DDE90932134302D12368D907D8D518EED3
:1045A000103A524631462846B84701303FF409AF29
:1045B0004FF0000904F11A0A099B5B424B4501DCEC
:1045C0000A9B92E70123524631462846B8470130FC
:1045D0003FF4F7AE09F10109EEE700BFFFFFEF7FFF
:1045E000E8720008EC720008F0720008F47200082B
:1045F000F87200080A9AA36D9A42A8BF1A46002AC8
:10460000914637DC4FF0000B29EAE97904F11A02F0
:10461000A36D0593A3EB09035B4533DCDDE90923B7
:104620009A423BDB2368DA0738D4DDE90932A2EB92
:104630000309059BD21A9145A8BF9146B9F1000F15
:1046400035DC4FF0000829EAE97904F11A0ADDE9BE
:1046500009239B1AA3EB090343457FF779AF012395
:10466000524631462846B84701303FF4AAAE08F119
:104670000108ECE71346314642462846B847013068
:10468000C0D19EE60123314628460592B847013045
:104690003FF497AE059A0BF1010BB9E718EE103A0B
:1046A000524631462846B8470130BED189E6059AC0
:1046B0004B46424431462846B8470130C1D180E6D6
:1046C0000A9A012A01DCDB073AD50123424631462A
:1046D0002846B84701303FF474AE18EE103A5246FF
:1046E00031462846B84701303FF46BAED4E9120199
:1046F00000220023DDF828A0FCF7EEF9D8B90AF172
:10470000FF3308F1010231462846B84701300ED187
:1047100057E60123524631462846B84701303FF458
:1047200050AE08F101080A9B013B4345F1DC4B46C2
:1047300004F15002DAE64FF0000804F11A0AF2E739
:1047400001234246DFE701234A4631462846B8475F
:1047500001303FF436AE08F10108E3680B995B1AAB
:104760004345F0DCF8E64FF0000804F11909F4E7DE
:104770002DE9F047164699468A680B69DDF82080D6
:104780009342B8BF1346336091F8432007460C4666
:104790000AB1013333602368990642BF336802339C
:1047A0003360256815F0060506D104F1190AE3689F
:1047B00032689B1AAB4226DC94F84320131E226811
:1047C00018BF012392062BD404F143024946384610
:1047D000C04701301ED02368226903F00603042B72
:1047E00002BFE5683368ED1AA3680CBF25EAE575DA
:1047F00000259342C4BF9B1AED1800261A34B54217
:104800001AD1002008E00123524649463846C047E5
:10481000013003D14FF0FF30BDE8F0870135C6E726
:10482000E1185A1C302081F84300224494F84510C6
:1048300082F843100233C7E701232246494638462F
:10484000C0470130E6D00136D9E700002DE9FF4727
:104850000F7E0C9D782F914680460C469A4601F1BA
:10486000430207D8622F0AD8002F00F0D480582FB7
:1048700000F0C08004F1420584F842703AE0A7F1EC
:104880006303152BF6D801A151F823F0E548000881
:10489000F948000875480008754800087548000880
:1048A00075480008F9480008754800087548000870
:1048B0007548000875480008FD49000825490008AA
:1048C000B749000875480008754800081F4A0008E5
:1048D0007548000825490008754800087548000813
:1048E000BF4900082B681A1D1B682A6004F14205A5
:1048F00084F8423001239FE020682B68070603F10B
:104900000401296001D51E6803E04606FBD5B3F912
:104910000060002E03DA2D23764284F843305A4893
:104920000A2312E02B682068191D2960050601D5AD
:104930001E6802E04106FBD51E8853486F2F0CBF4E
:1049400008230A23002184F843106568A560002D20
:10495000A2BF216821F0040121600EB9002D4BD0C7
:104960001546B6FBF3F103FB1167C75D05F8017D42
:104970003746BB420E46F4D9082B0BD12368DE071D
:1049800008D5236961689942DEBF302305F8013CF0
:1049900005F1FF35521B2261CDF800A04B4603AA5A
:1049A00021464046FFF7E4FE01304AD14FF0FF3088
:1049B00004B0BDE8F087236843F020032360334848
:1049C000782784F84570236829681F0651F8046B1E
:1049D00002D45F0648BFB6B2DF0748BF43F02003EA
:1049E000296048BF23601EB9236823F02003236099
:1049F0001023A7E72448E4E71546BDE72B6826689F
:104A00006169181D286035061B6801D5196002E030
:104A10007006FBD51980002323611546BCE72B687F
:104A20001A1D2A601D68626800212846FBF7D8FB22
:104A300008B1401B606063682361002384F8433041
:104A4000AAE723692A4649464046D0470130ADD0FF
:104A500023689B0713D4E068039B9842B8BF1846AD
:104A6000A6E70123324649464046D04701309DD053
:104A70000135E36803995B1AAB42F2DCEBE70025F2
:104A800004F11906F5E700BFFA7200080B7300087D
:104A9000002310B50446C0E90033C0E90433836045
:104AA00081814366C2818361194608225C3000F02F
:104AB00002F9054B6362054BA362054BE362054BAC
:104AC0002462236310BD00BF314C0008534C000822
:104AD0008B4C0008AF4C0008024A0349034800F021
:104AE00069B800BF0C0000203D67000818000020D6
:104AF00041680C4B994210B5044601D001F01EFEEE
:104B0000A168094B994202D0204601F017FEE168E6
:104B1000064B994204D02046BDE8104001F00EBE7D
:104B200010BD00BFCC030020340400209C040020F2
:104B300010B50B4B0B4C0C4A1A6020460022042186
:104B4000FFF7A6FF04F1680001220921FFF7A0FF8B
:104B500004F1D0000222BDE810401221FFF798BFF7
:104B600004050020CC030020D94A0008014800F0C9
:104B700019B900BF0D050020014800F014B900BFAD
:104B80000D05002010B50446FFF7F0FF236A1BB1A6
:104B9000BDE81040FFF7F0BF044B2362044B1B68D5
:104BA000002BF5D1FFF7C4FFF2E700BFF14A000880
:104BB000040500202DE9F8430746884614460026E0
:104BC000D4E90195B9F1010905D52468002CF7D184
:104BD0003046BDE8F883AB89012B07D9B5F90E3013
:104BE000013303D029463846C04706436835E9E714
:104BF0000EB400B59CB01DAB029006906FF0004162
:104C0000094807910491094953F8042B059100685C
:104C1000019302A901F00EFC029B00221A701CB045
:104C20005DF804EB03B07047640000200802FFFF4A
:104C300010B50C46B1F90E1000F06CF80028ABBFAF
:104C4000636DA3891B1823F48053ACBF6365A381F4
:104C500010BD2DE9F0411F468B89DB0505460C464A
:104C6000164605D5B1F90E100223002200F040F8D7
:104C7000A389B4F90E1023F48053A38132463B4636
:104C80002846BDE8F04100F057B810B50C46B1F920
:104C90000E1000F02DF8431CA38915BF606523F4A6
:104CA000805343F48053A38118BFA38110BDB1F991
:104CB0000E1000F00DB802440346934200D1704735
:104CC00003F8011BF9E70000004870475801002075
:104CD00038B5064D0023044608462B6002F0D2F892
:104CE000431C02D12B6803B1236038BD08050020A6
:104CF00038B5074D04460846114600222A601A4678
:104D000002F0E8F8431C02D12B6803B1236038BDE0
:104D10000805002038B5074D044608461146002214
:104D20002A601A4602F0DEF8431C02D12B6803B158
:104D3000236038BD0805002038B5074D04460846F5
:104D4000114600222A601A4602F0E2F8431C02D102
:104D50002B6803B1236038BD0805002070B50D4DE8
:104D60000D4C641BA4100026A64209D10B4D0C4C1F
:104D700002F03CFA641BA4100026A64205D170BDC7
:104D800055F8043B98470136EEE755F8043B984741
:104D90000136F2E7847600088476000884760008FD
:104DA00088760008704770472DE9F74F03690C6952
:104DB000A34207467EDB013C01F1140800F1140513
:104DC00005EB8403019358F8243055F8242001336F
:104DD0009A424FEA840B08EB8409B2FBF3F631D315
:104DE0004FF0000E4046AC46F24650F8042B93B20A
:104DF00006FB03E34FEA124E1A0C9BB2AAEB030325
:104E0000DCF800A013FA8AF306FB0E220093009B45
:104E10004FEA124E92B2C2EB1A4202EB2342BDF8A5
:104E20000030814543EA02434CF8043B4FEA224AF2
:104E3000DBD255F80B302BB9019B043B9D421A463F
:104E40002CD33C61384601F09BF9002822DB013667
:104E50002946002058F8042BD1F800C093B2C31A99
:104E6000120C13FA8CF3C2EB1C4202EB23429BB2EE
:104E700043EA0243C14541F8043B4FEA2240E9D2EC
:104E800055F8242005EB840322B9043B9D421A46C1
:104E90000AD33C61304603B0BDE8F08F1268043B92
:104EA000002ACED1013CC9E71268043B002AF0D1A8
:104EB000013CEBE70020EEE72DE9F04F2DED048BF0
:104EC000C56993B08DED020B57EC106BDDF8808057
:104ED000079104460A920D9375B9102000F02AFE3E
:104EE0000246E06120B9AE4BEF21AE4801F086FCEE
:104EF000C0E901550560C560E369196851B15A6898
:104F00004A60012393408B60204600F0FDFEE36978
:104F100000221A603B1EBBBF23F000430393002313
:104F20000122ACBFC8F80030C8F800209E4BDDF865
:104F30000C8033EA08031BD10D9A42F20F73136001
:104F4000C8F31303334300F09385219B63B9974B58
:104F500027E0974B00930833219A1360009813B011
:104F6000BDEC048BBDE8F08F904B00930333F3E767
:104F70009DED027B002251EC170BB0EE478AF0EE5C
:104F8000678A0023FBF7A8FD814660B10D9A0123D3
:104F90001360219B002B00F06885864B219A1360DB
:104FA000013B0093DAE710AA11A92046B0EE480AA7
:104FB000F0EE680A01F08AF9C8F30A558246002D1E
:104FC0007FD018EE903AC3F3130343F07F5351ECB4
:104FD000180B43F44013A5F2FF35CDF8389019466D
:104FE0000022754BFBF758F967A3D3E90023FBF7C1
:104FF0000BFB67A3D3E90023FBF750F906462846CD
:105000000F46FBF797FA64A3D3E90023FBF7FCFAFA
:1050100002460B4630463946FBF740F906460F4636
:10502000FBF7A2FD00228346002330463946FBF7FA
:105030005DFD48B15846FBF77DFA32463B46FBF72B
:105040004BFD08B90BF1FF3BBBF1160F57D85B4B7B
:1050500003EBCB03D3E9002351EC180BFBF746FD20
:1050600000284ED00BF1FF3B00230C93109B5B1BE1
:105070005A1E45BFC3F10103059300230023069286
:1050800054BF05930693BBF1000F3CDB069BCDF8A4
:105090002CB05B44069300230893079B092B68D828
:1050A000052BC4BF043B0793079BA3F10203CCBFAE
:1050B00000250125032B00F28580DFE803F02E3B5D
:1050C0003958DDE910531D4405F23243202BC1BF8E
:1050D000C3F1400308FA03F805F2124326FA03F37A
:1050E000D6BFC3F1200348EA030006FA03F0FBF73A
:1050F00011FA0122A1F1F873013D0E926FE701232D
:10510000B3E70C90B2E7059BA3EB0B030593CBF140
:105110000003089300230B93BFE7002309930A9B26
:10512000002B52DC0123019304931A460A920BE0F0
:105130000123F3E7002309930A9B5B4401930133A6
:10514000012B0493B8BF0123E0690021042202F17E
:1051500014069E423DD94160204600F095FD009026
:10516000002839D1164B024640F2AF11BDE60123AB
:10517000E1E701250023079309954FF0FF330193E1
:10518000049300221223D1E761436F63A787D23FC4
:10519000B3C8608B288AC63FFB799F501344D33F26
:1051A00029730008407300080000F07F2573000891
:1051B0001C730008F97200080000F83F50740008E2
:1051C000A873000801230993D7E70A9B019304936E
:1051D000BAE701315200BAE7E369009A1A60049B0A
:1051E0000E2B00F2A880002D00F0A580BBF1000F6F
:1051F00038DDC04B0BF00F0203EBC2031BF4807FC2
:10520000D3E900674FEA2B1819D0BB4B51EC180BB0
:10521000D3E90823FBF722FBCDE9020108F00F08D0
:105220000325DFF8D492B8F1000F0AD1DDE90201BD
:1052300032463B46FBF712FBCDE902012BE002258B
:10524000EFE718F0010F08D030463946D9E90023BE
:10525000FBF7DAF9013506460F464FEA680809F10F
:105260000809E0E700F09F80CBF10006A14BA24FB8
:1052700006F00F0203EBC203D3E9002351EC180B35
:10528000FBF7C2F9CDE90201361100230225002EF9
:105290007ED1002BD0D10C9BDDE90289002B00F0E0
:1052A0008480964B002240464946FBF71FFC0028AD
:1052B0007BD0049B002B78D0019B002B39DD904BD9
:1052C000002240464946FBF79FF9CDE90201019EC5
:1052D0000BF1FF370135DDE902892846FBF72AF992
:1052E00042464B46FBF790F9864B0022FAF7D6FF71
:1052F000A1F15073CDE902010393002E58D1824BE6
:10530000002240464946FAF7C7FFDDE902238046FE
:105310008946FBF709FC002840F09682DDE902216E
:10532000404601F100434946FBF7E0FB002840F00E
:1053300089828DED028B119B002BC0F24E81BBF157
:105340000E0F00F34A816B4B03EBCB03D3E90089CB
:105350000A9B002B80F2DC80049B002B00F3D8809A
:1053600040F06F82684B002240464946FBF74CF9FB
:10537000DDE90223FBF7CEFB049E3746002840F010
:105380004582009D312305F8013B0BF1010B41E201
:10539000F20705D5D7E90023FBF736F901350123DC
:1053A0007610083773E7022575E7049E5F4692E79B
:1053B0000099504B9DED027B314402910999B0EE6A
:1053C000479AF0EE679A03EBC60353E902230029DC
:1053D00044D04E490020FBF741FA53EC192BFAF761
:1053E0005BFF009D41EC190B49464046FBF7BCFBB7
:1053F0000646FBF79FF802460B4640464946FAF739
:105400004BFF303605F8016B53EC192B804689466B
:10541000FBF76CFB002864D142464B46374900201D
:10542000FAF73AFF53EC192BFBF760FB002840F02A
:10543000B680029B9D423FF47CAF314B51EC190B7F
:105440000022FBF7E1F82E4B41EC190B00224046FD
:105450004946FBF7D9F880468946C5E751EC170B5A
:10546000FBF7D2F8029B009D0F9341EC190B4946C4
:105470004046FBF779FB0646FBF75CF83036024600
:105480000B4640464946FAF707FF05F8016B029BB9
:105490009D42804689464FF0000224D11B4B51ECBF
:1054A000190BFAF7FBFE02460B4640464946FBF74E
:1054B0003BFB002873D153EC192B14490020FAF759
:1054C000EBFE02460B4640464946FBF70FFB002821
:1054D0003FF42FAF0F9D6B1E0F9315F8013C302B3F
:1054E000F8D0BB464AE0064BFBF78EF8804689466B
:1054F000BDE700BF50740008287400080000F03FAA
:105500000000244000001C40000014400000E03F68
:10551000DDE90267009D42464B4630463946FBF7BF
:105520009DF9FBF721FB0190FBF704F842464B463F
:10553000FBF76AF802460B4630463946FAF7ACFEEE
:10554000019E049F303605F8016B009EAE1BB742EA
:1055500002460B4634D1FAF7A1FE42464B460646B8
:105560000F46FBF7E1FAC8B942464B46304639468A
:10557000FBF7B2FA10B1019BDB070FD4514620466E
:1055800000F0C2FB00230D9A2B700BF10103136096
:10559000219B002B3FF4E2AC1D60DFE45F462B460D
:1055A0001D4613F8012D392A06D1009A9A42F7D1E7
:1055B0000099302201370A701A7801321A7090E788
:1055C000A34B0022FBF720F80022002306460F46DB
:1055D000FBF782FA00289ED0D0E7099A002A00F053
:1055E000CA80079A012A00F3AD800E9A002A00F0C3
:1055F000A58003F23343089E059D059A1A4405923F
:10560000069A01211A442046069200F033FC074610
:1056100065B1069B002B09DDAB42059AA8BF2B465E
:10562000D21A0592069AED1AD31A0693089BF3B183
:10563000099B002B00F0A380002E10DD3946324676
:10564000204600F0D7FC524601460746204600F0AF
:1056500027FC51468046204600F056FBC246089B78
:105660009A1B04D05146204600F0C4FC824601211A
:10567000204600F0FFFB0B9B002B064640F3818089
:105680001A460146204600F0B5FC079B012B064652
:105690007ADD4FF00008336906EB8303186900F0E8
:1056A0009BFBC0F12000069B184410F01F0000F087
:1056B0009480C0F12003042B40F38580059BC0F14A
:1056C0001C0003440593069B034405440693059B75
:1056D000002B05DD51461A46204600F0E5FC8246C7
:1056E000069B002B05DD31461A46204600F0DCFC07
:1056F00006460C9B002B72D03146504600F040FD10
:1057000000286CDA002351460A22204600F01EFBD6
:10571000099B0BF1FF3B8246002B00F0B081002378
:1057200039460A22204600F011FB019B002B074658
:1057300000F39680079B022B59DC91E0109BC3F18C
:10574000360358E7049B5E1E089BB342BFBF089B0D
:105750000B9A0896F31AB4BFD2189E1B049BBCBFC9
:105760000B920026002BB7BFDDE90423DDE90435E9
:105770009D1A002341E7089E059D099F48E7089A66
:1057800070E7079B012B19DC029BBBB9039BC3F39A
:1057900013039BB9039B23F000431B0D1B0583B12F
:1057A000059B01330593069B013306934FF00108D7
:1057B0000B9B002B7FF46FAF012074E74FF00008C4
:1057C000F6E79846F4E782D0059A1C331A4405920E
:1057D000069A1A441D44069279E70346F4E7049BAF
:1057E000002B37DC079B022B34DD049B0193019BCC
:1057F00063B931460522204600F0A8FA0146064664
:10580000504600F0BDFC00283FF7BBAD0A9B009D51
:105810006FEA030B4FF000083146204600F074FA9F
:10582000002F3FF4ABAEB8F1000F05D0B84503D060
:105830004146204600F068FA3946204600F064FAF6
:105840009CE600263746E1E7BB46374699E500BFB0
:1058500000002440099B002B00F0C880049B0193AA
:10586000002D05DD39462A46204600F01DFC07467E
:10587000B8F1000F5BD07968204600F005FA0546C4
:1058800028B9834B024640F2EF21FFF72EBB3A695D
:105890000232920007F10C010C3000F0A1FF01224E
:1058A0002946204600F000FC009B01330493DDE90B
:1058B000002313440893029B03F00103B8460693A8
:1058C0000746049B3146013B50460193FFF76CFAB3
:1058D0004146029000F13009504600F051FC3A4632
:1058E00005903146204600F067FCC268054602BBC1
:1058F0000146504600F044FC0246294620460992E3
:1059000000F002FA079B099A049D43EA0201069BF4
:10591000194310D1B9F1390F29D0059B002B02DDB5
:10592000029B03F13109019B83F8009074E738462C
:10593000BAE70122E1E7059B002B04DB07990B4343
:1059400006990B4320D1002AEDDD51460122204665
:1059500000F0AAFB3146824600F012FC002803DC6E
:10596000E1D119F0010FDED0B9F1390FD8D1019A88
:10597000392313702B461D46013B15F8012C392A9B
:105980006CD001321A7047E7002A07DDB9F1390FF0
:10599000EDD0019A09F1010313703DE7049B089AC9
:1059A00003F8019C934243D0514600230A2220462B
:1059B00000F0CCF9B84582464FF000034FF00A02E0
:1059C0004146204607D100F0C1F980460746049BB6
:1059D0000133049375E700F0B9F939468046002396
:1059E0000A22204600F0B2F90746F0E7049B019333
:1059F000009D31465046FFF7D7F900F13009009B72
:105A000005F8019BEA1A019B934207DD51460023EA
:105A10000A22204600F09AF98246EAE7019B002B11
:105A2000C8BF1D46009BD8BF01251D444FF000088C
:105A300051460122204600F037FB3146824600F0F5
:105A40009FFB002896DC02D119F0010F92D12B4662
:105A50001D4613F8012D302AFAD0DDE6009A9A424D
:105A600089D10BF1010B312396E70A4BFFF799BA65
:105A7000219B002B7FF46DAA074BFFF792BA019B85
:105A8000002BB5DC079B022B3FF7B1AEB0E700BFA0
:105A9000A8730008F87200081C73000837B50029C5
:105AA00044D051F8043C0190002BA1F10404B8BF8C
:105AB000E41800F0DDF81E4A0198136833B96360FA
:105AC000146003B0BDE8304000F0D8B8A34208D954
:105AD000256861198B4201BF19685B68491921600B
